{
  "address": "0x21dF544947ba3E8b3c32561399E88B52Dc8b2823",
  "abi": [
    {
      "inputs": [
        {
          "internalType": "address",
          "name": "_artistAddress",
          "type": "address"
        },
        {
          "internalType": "address",
          "name": "_developerAddress",
          "type": "address"
        },
        {
          "internalType": "address",
          "name": "_royalMuseum",
          "type": "address"
        }
      ],
      "stateMutability": "nonpayable",
      "type": "constructor"
    },
    {
      "anonymous": false,
      "inputs": [
        {
          "indexed": true,
          "internalType": "address",
          "name": "artistAddress",
          "type": "address"
        }
      ],
      "name": "ArtistAllowed",
      "type": "event"
    },
    {
      "anonymous": false,
      "inputs": [
        {
          "indexed": true,
          "internalType": "address",
          "name": "artistAddress",
          "type": "address"
        }
      ],
      "name": "ArtistDisallowed",
      "type": "event"
    },
    {
      "anonymous": false,
      "inputs": [
        {
          "indexed": true,
          "internalType": "address",
          "name": "artistAddress",
          "type": "address"
        }
      ],
      "name": "ArtistSet",
      "type": "event"
    },
    {
      "anonymous": false,
      "inputs": [
        {
          "indexed": false,
          "internalType": "contract QueenAuctionHouseProxy",
          "name": "queenAuctionHouseProxy",
          "type": "address"
        }
      ],
      "name": "AuctionHouseProxySet",
      "type": "event"
    },
    {
      "anonymous": false,
      "inputs": [
        {
          "indexed": false,
          "internalType": "address",
          "name": "sender",
          "type": "address"
        }
      ],
      "name": "ClearedWhiteList",
      "type": "event"
    },
    {
      "anonymous": false,
      "inputs": [
        {
          "indexed": true,
          "internalType": "address",
          "name": "addressDAOExecutor",
          "type": "address"
        }
      ],
      "name": "DAOExecutorSet",
      "type": "event"
    },
    {
      "anonymous": false,
      "inputs": [
        {
          "indexed": true,
          "internalType": "address",
          "name": "addressDAO",
          "type": "address"
        }
      ],
      "name": "DAOSet",
      "type": "event"
    },
    {
      "anonymous": false,
      "inputs": [
        {
          "indexed": true,
          "internalType": "address",
          "name": "artistAddress",
          "type": "address"
        }
      ],
      "name": "DeveloperAllowed",
      "type": "event"
    },
    {
      "anonymous": false,
      "inputs": [
        {
          "indexed": true,
          "internalType": "address",
          "name": "artistAddress",
          "type": "address"
        }
      ],
      "name": "DeveloperDisallowed",
      "type": "event"
    },
    {
      "anonymous": false,
      "inputs": [
        {
          "indexed": true,
          "internalType": "address",
          "name": "developerAddress",
          "type": "address"
        }
      ],
      "name": "DeveloperSet",
      "type": "event"
    },
    {
      "anonymous": false,
      "inputs": [
        {
          "indexed": true,
          "internalType": "address",
          "name": "_address",
          "type": "address"
        }
      ],
      "name": "ImplementationEnded",
      "type": "event"
    },
    {
      "anonymous": false,
      "inputs": [
        {
          "indexed": false,
          "internalType": "contract IQueenLab",
          "name": "queenLab",
          "type": "address"
        }
      ],
      "name": "LabSet",
      "type": "event"
    },
    {
      "anonymous": false,
      "inputs": [
        {
          "indexed": true,
          "internalType": "address",
          "name": "_address",
          "type": "address"
        }
      ],
      "name": "MinterUpdate",
      "type": "event"
    },
    {
      "anonymous": false,
      "inputs": [
        {
          "indexed": true,
          "internalType": "address",
          "name": "previousOwner",
          "type": "address"
        },
        {
          "indexed": true,
          "internalType": "address",
          "name": "newOwner",
          "type": "address"
        }
      ],
      "name": "OwnershipTransferred",
      "type": "event"
    },
    {
      "anonymous": false,
      "inputs": [
        {
          "indexed": false,
          "internalType": "address",
          "name": "account",
          "type": "address"
        }
      ],
      "name": "Paused",
      "type": "event"
    },
    {
      "anonymous": false,
      "inputs": [
        {
          "indexed": false,
          "internalType": "contract IQueenE",
          "name": "_queenE",
          "type": "address"
        }
      ],
      "name": "QueenESet",
      "type": "event"
    },
    {
      "anonymous": false,
      "inputs": [
        {
          "indexed": true,
          "internalType": "address",
          "name": "_royalTower",
          "type": "address"
        }
      ],
      "name": "RoyalTowerSet",
      "type": "event"
    },
    {
      "anonymous": false,
      "inputs": [
        {
          "indexed": false,
          "internalType": "contract IQueenTraits",
          "name": "queenStorage",
          "type": "address"
        }
      ],
      "name": "StorageSet",
      "type": "event"
    },
    {
      "anonymous": false,
      "inputs": [
        {
          "indexed": false,
          "internalType": "address",
          "name": "account",
          "type": "address"
        }
      ],
      "name": "Unpaused",
      "type": "event"
    },
    {
      "anonymous": false,
      "inputs": [
        {
          "indexed": false,
          "internalType": "address",
          "name": "addr",
          "type": "address"
        }
      ],
      "name": "WhiteList",
      "type": "event"
    },
    {
      "inputs": [],
      "name": "QueenAuctionHouse",
      "outputs": [
        {
          "internalType": "contract IQueenAuctionHouse",
          "name": "",
          "type": "address"
        }
      ],
      "stateMutability": "view",
      "type": "function"
    },
    {
      "inputs": [],
      "name": "QueenAuctionHouseProxyAddr",
      "outputs": [
        {
          "internalType": "address",
          "name": "",
          "type": "address"
        }
      ],
      "stateMutability": "view",
      "type": "function"
    },
    {
      "inputs": [],
      "name": "QueenE",
      "outputs": [
        {
          "internalType": "contract IQueenE",
          "name": "",
          "type": "address"
        }
      ],
      "stateMutability": "view",
      "type": "function"
    },
    {
      "inputs": [],
      "name": "QueenLab",
      "outputs": [
        {
          "internalType": "contract IQueenLab",
          "name": "",
          "type": "address"
        }
      ],
      "stateMutability": "view",
      "type": "function"
    },
    {
      "inputs": [],
      "name": "QueenTraits",
      "outputs": [
        {
          "internalType": "contract IQueenTraits",
          "name": "",
          "type": "address"
        }
      ],
      "stateMutability": "view",
      "type": "function"
    },
    {
      "inputs": [],
      "name": "RoyalTowerAddr",
      "outputs": [
        {
          "internalType": "address",
          "name": "",
          "type": "address"
        }
      ],
      "stateMutability": "view",
      "type": "function"
    },
    {
      "inputs": [],
      "name": "_minter",
      "outputs": [
        {
          "internalType": "address",
          "name": "",
          "type": "address"
        }
      ],
      "stateMutability": "view",
      "type": "function"
    },
    {
      "inputs": [
        {
          "internalType": "address",
          "name": "_allowedArtist",
          "type": "address"
        }
      ],
      "name": "allowArtist",
      "outputs": [
        {
          "internalType": "address",
          "name": "newArtist",
          "type": "address"
        }
      ],
      "stateMutability": "nonpayable",
      "type": "function"
    },
    {
      "inputs": [
        {
          "internalType": "address",
          "name": "_allowedDeveloper",
          "type": "address"
        }
      ],
      "name": "allowDeveloper",
      "outputs": [
        {
          "internalType": "address",
          "name": "allowedDeveloper",
          "type": "address"
        }
      ],
      "stateMutability": "nonpayable",
      "type": "function"
    },
    {
      "inputs": [],
      "name": "artist",
      "outputs": [
        {
          "internalType": "address",
          "name": "",
          "type": "address"
        }
      ],
      "stateMutability": "view",
      "type": "function"
    },
    {
      "inputs": [],
      "name": "clearWhiteList",
      "outputs": [],
      "stateMutability": "nonpayable",
      "type": "function"
    },
    {
      "inputs": [],
      "name": "dao",
      "outputs": [
        {
          "internalType": "address",
          "name": "",
          "type": "address"
        }
      ],
      "stateMutability": "view",
      "type": "function"
    },
    {
      "inputs": [],
      "name": "daoExecutor",
      "outputs": [
        {
          "internalType": "address",
          "name": "",
          "type": "address"
        }
      ],
      "stateMutability": "view",
      "type": "function"
    },
    {
      "inputs": [],
      "name": "developer",
      "outputs": [
        {
          "internalType": "address",
          "name": "",
          "type": "address"
        }
      ],
      "stateMutability": "view",
      "type": "function"
    },
    {
      "inputs": [
        {
          "internalType": "address",
          "name": "_disallowedArtist",
          "type": "address"
        }
      ],
      "name": "disallowArtist",
      "outputs": [
        {
          "internalType": "address",
          "name": "newArtist",
          "type": "address"
        }
      ],
      "stateMutability": "nonpayable",
      "type": "function"
    },
    {
      "inputs": [
        {
          "internalType": "address",
          "name": "_disallowedDeveloper",
          "type": "address"
        }
      ],
      "name": "disallowDeveloper",
      "outputs": [
        {
          "internalType": "address",
          "name": "disallowedDeveloper",
          "type": "address"
        }
      ],
      "stateMutability": "nonpayable",
      "type": "function"
    },
    {
      "inputs": [],
      "name": "implementationEnded",
      "outputs": [],
      "stateMutability": "nonpayable",
      "type": "function"
    },
    {
      "inputs": [
        {
          "internalType": "address",
          "name": "addr",
          "type": "address"
        }
      ],
      "name": "isArtist",
      "outputs": [
        {
          "internalType": "bool",
          "name": "",
          "type": "bool"
        }
      ],
      "stateMutability": "view",
      "type": "function"
    },
    {
      "inputs": [
        {
          "internalType": "address",
          "name": "devAddr",
          "type": "address"
        }
      ],
      "name": "isDeveloper",
      "outputs": [
        {
          "internalType": "bool",
          "name": "",
          "type": "bool"
        }
      ],
      "stateMutability": "view",
      "type": "function"
    },
    {
      "inputs": [],
      "name": "isOnImplementation",
      "outputs": [
        {
          "internalType": "bool",
          "name": "",
          "type": "bool"
        }
      ],
      "stateMutability": "view",
      "type": "function"
    },
    {
      "inputs": [
        {
          "internalType": "address",
          "name": "_addr",
          "type": "address"
        }
      ],
      "name": "isWhiteListed",
      "outputs": [
        {
          "internalType": "bool",
          "name": "",
          "type": "bool"
        }
      ],
      "stateMutability": "view",
      "type": "function"
    },
    {
      "inputs": [],
      "name": "minter",
      "outputs": [
        {
          "internalType": "address",
          "name": "",
          "type": "address"
        }
      ],
      "stateMutability": "view",
      "type": "function"
    },
    {
      "inputs": [],
      "name": "owner",
      "outputs": [
        {
          "internalType": "address",
          "name": "",
          "type": "address"
        }
      ],
      "stateMutability": "view",
      "type": "function"
    },
    {
      "inputs": [],
      "name": "paused",
      "outputs": [
        {
          "internalType": "bool",
          "name": "",
          "type": "bool"
        }
      ],
      "stateMutability": "view",
      "type": "function"
    },
    {
      "inputs": [],
      "name": "renounceOwnership",
      "outputs": [],
      "stateMutability": "nonpayable",
      "type": "function"
    },
    {
      "inputs": [],
      "name": "royalMuseum",
      "outputs": [
        {
          "internalType": "address",
          "name": "",
          "type": "address"
        }
      ],
      "stateMutability": "view",
      "type": "function"
    },
    {
      "inputs": [
        {
          "internalType": "address",
          "name": "_newArtist",
          "type": "address"
        }
      ],
      "name": "setArtist",
      "outputs": [
        {
          "internalType": "address",
          "name": "newArtist",
          "type": "address"
        }
      ],
      "stateMutability": "nonpayable",
      "type": "function"
    },
    {
      "inputs": [
        {
          "internalType": "address payable",
          "name": "_addressDAO",
          "type": "address"
        }
      ],
      "name": "setDAO",
      "outputs": [],
      "stateMutability": "nonpayable",
      "type": "function"
    },
    {
      "inputs": [
        {
          "internalType": "address payable",
          "name": "_addressDAOExecutor",
          "type": "address"
        }
      ],
      "name": "setDAOExecutor",
      "outputs": [],
      "stateMutability": "nonpayable",
      "type": "function"
    },
    {
      "inputs": [
        {
          "internalType": "address",
          "name": "_dev",
          "type": "address"
        }
      ],
      "name": "setDeveloper",
      "outputs": [
        {
          "internalType": "address",
          "name": "newDeveloper",
          "type": "address"
        }
      ],
      "stateMutability": "nonpayable",
      "type": "function"
    },
    {
      "inputs": [
        {
          "internalType": "address",
          "name": "_minterAddress",
          "type": "address"
        }
      ],
      "name": "setMinter",
      "outputs": [],
      "stateMutability": "nonpayable",
      "type": "function"
    },
    {
      "inputs": [
        {
          "internalType": "contract QueenAuctionHouseProxy",
          "name": "_auctionHouseContractProxy",
          "type": "address"
        },
        {
          "internalType": "contract QueenAuctionHouseProxyAdmin",
          "name": "_auctionHouseContractProxyAdmin",
          "type": "address"
        }
      ],
      "name": "setQueenAuctionHouseProxy",
      "outputs": [],
      "stateMutability": "nonpayable",
      "type": "function"
    },
    {
      "inputs": [
        {
          "internalType": "contract IQueenE",
          "name": "_queenE",
          "type": "address"
        }
      ],
      "name": "setQueenE",
      "outputs": [],
      "stateMutability": "nonpayable",
      "type": "function"
    },
    {
      "inputs": [
        {
          "internalType": "contract IQueenLab",
          "name": "_labContract",
          "type": "address"
        }
      ],
      "name": "setQueenLab",
      "outputs": [],
      "stateMutability": "nonpayable",
      "type": "function"
    },
    {
      "inputs": [
        {
          "internalType": "contract IQueenTraits",
          "name": "_storageContract",
          "type": "address"
        }
      ],
      "name": "setQueenStorage",
      "outputs": [],
      "stateMutability": "nonpayable",
      "type": "function"
    },
    {
      "inputs": [
        {
          "internalType": "address payable",
          "name": "_addressRoyalTower",
          "type": "address"
        }
      ],
      "name": "setRoyalTower",
      "outputs": [],
      "stateMutability": "nonpayable",
      "type": "function"
    },
    {
      "inputs": [
        {
          "internalType": "bytes4",
          "name": "interfaceId",
          "type": "bytes4"
        }
      ],
      "name": "supportsInterface",
      "outputs": [
        {
          "internalType": "bool",
          "name": "",
          "type": "bool"
        }
      ],
      "stateMutability": "view",
      "type": "function"
    },
    {
      "inputs": [
        {
          "internalType": "address",
          "name": "newOwner",
          "type": "address"
        }
      ],
      "name": "transferOwnership",
      "outputs": [],
      "stateMutability": "nonpayable",
      "type": "function"
    },
    {
      "inputs": [
        {
          "internalType": "address[]",
          "name": "_whiteListed",
          "type": "address[]"
        }
      ],
      "name": "whiteListAddress",
      "outputs": [],
      "stateMutability": "nonpayable",
      "type": "function"
    },
    {
      "inputs": [
        {
          "internalType": "address",
          "name": "_addr",
          "type": "address"
        }
      ],
      "name": "whiteListContains",
      "outputs": [
        {
          "internalType": "bool",
          "name": "",
          "type": "bool"
        }
      ],
      "stateMutability": "view",
      "type": "function"
    },
    {
      "inputs": [],
      "name": "whiteListed",
      "outputs": [
        {
          "internalType": "uint256",
          "name": "",
          "type": "uint256"
        }
      ],
      "stateMutability": "view",
      "type": "function"
    }
  ],
  "numDeployments": 6,
  "bytecode": "0x60806040523480156200001157600080fd5b506040516200243b3803806200243b8339810160408190526200003491620001ab565b6000805460ff19169055600180556200004d33620000b8565b6016805460ff60a01b1916600160a01b179055600680546001600160a01b038086166001600160a01b031992831617909255600780548584169083161790556005805492841692909116919091179055620000af632eac530f60e21b6200010a565b505050620001f5565b600280546001600160a01b038381166001600160a01b0319831681179093556040519116919082907f8be0079c531659141344cd1fd0a4f28419497f9722a3daafe3b4186f6b6457e090600090a35050565b6001600160e01b03198082161415620001695760405162461bcd60e51b815260206004820152601c60248201527f4552433136353a20696e76616c696420696e7465726661636520696400000000604482015260640160405180910390fd5b6001600160e01b0319166000908152600360205260409020805460ff19166001179055565b80516001600160a01b0381168114620001a657600080fd5b919050565b600080600060608486031215620001c157600080fd5b620001cc846200018e565b9250620001dc602085016200018e565b9150620001ec604085016200018e565b90509250925092565b61223680620002056000396000f3fe608060405234801561001057600080fd5b50600436106102535760003560e01c80636b2f65b011610146578063c23ca7f8116100c3578063e9d81edc11610087578063e9d81edc146104e4578063f2fde38b146104f5578063f9e9175614610508578063fca3b5aa14610519578063fce177851461052c578063ff70fa491461053457600080fd5b8063c23ca7f814610487578063ca4b208b1461049a578063cb70e5f5146104ab578063d4c97533146104be578063e73a914c146104d157600080fd5b80637e5342901161010a5780637e5342901461042c5780637ede850c1461043d5780638da5cb5b14610450578063a3515da714610461578063b17268e21461047457600080fd5b80636b2f65b0146103d85780636f9170f6146103eb578063715018a6146103fe57806375710a92146104065780637e0a66781461041957600080fd5b8063406194c5116101d45780634e41cfdb116101985780634e41cfdb14610381578063578ec33f146103945780635c975abb146103a75780635eca4a70146103b25780636634aeff146103c557600080fd5b8063406194c51461032f5780634162169f1461034057806343bc16121461035157806344c47561146103625780634a7ed5311461037957600080fd5b8063168a93e21161021b578063168a93e2146102db5780632fa29409146102f05780633497f787146103035780633d360fe8146103165780633dfb353b1461031e57600080fd5b806301e8bfd91461025857806301ffc9a71461028057806303b4fda714610293578063056512ea146102b857806307546172146102ca575b600080fd5b61026b610266366004611efe565b610547565b60405190151581526020015b60405180910390f35b61026b61028e366004611f1b565b61055a565b6014546001600160a01b03165b6040516001600160a01b039091168152602001610277565b601654600160a01b900460ff1661026b565b6004546001600160a01b03166102a0565b6102ee6102e9366004611f45565b610596565b005b6102a06102fe366004611efe565b610637565b6005546102a0906001600160a01b031681565b6102ee61074c565b6012546001600160a01b03166102a0565b6009546001600160a01b03166102a0565b6008546001600160a01b03166102a0565b6006546001600160a01b03166102a0565b61036b60115481565b604051908152602001610277565b6102a06107b0565b6102ee61038f366004611f7e565b610839565b6004546102a0906001600160a01b031681565b60005460ff1661026b565b61026b6103c0366004611efe565b6109aa565b6102a06103d3366004611efe565b6109cf565b61026b6103e6366004611efe565b610a37565b61026b6103f9366004611efe565b610a5c565b6102ee610a85565b6102ee610414366004611efe565b610abb565b6102ee610427366004611efe565b610be5565b6016546001600160a01b03166102a0565b6102ee61044b366004611efe565b610dfa565b6002546001600160a01b03166102a0565b6102a061046f366004611efe565b610f56565b6102a0610482366004611efe565b610fb4565b6102ee610495366004611efe565b6110c4565b6007546001600160a01b03166102a0565b6102ee6104b9366004611efe565b611220565b6102a06104cc366004611efe565b611377565b6102ee6104df366004611efe565b611476565b600a546001600160a01b03166102a0565b6102ee610503366004611efe565b6115a3565b6013546001600160a01b03166102a0565b6102ee610527366004611efe565b61163e565b6102ee6116bb565b6102a0610542366004611efe565b611761565b6000610554600f8361186e565b92915050565b60006301ffc9a760e01b6001600160e01b0319831614806105545750506001600160e01b03191660009081526003602052604090205460ff1690565b60005460ff16156105c25760405162461bcd60e51b81526004016105b990611ff3565b60405180910390fd5b6105ca611893565b6105d2611911565b601680546001600160a01b038481166001600160a01b0319928316811790935560158054918516919092161790556040519081527fdb9dfac6697fb58ae5713823dddc17455c1d7a3017ac0b2a5e1d1ec6bbd10f399060200160405180910390a15050565b6000805460ff161561065b5760405162461bcd60e51b81526004016105b990611ff3565b61066361197f565b6001600160a01b0382166106895760405162461bcd60e51b81526004016105b99061201d565b6001600160a01b0382163b156106b15760405162461bcd60e51b81526004016105b990612062565b6106bc600b8361186e565b6107085760405162461bcd60e51b815260206004820152601b60248201527f57616c6c6574206e6f7420616c6c6f77656420616c6c6f77656421000000000060448201526064016105b9565b610713600b836119ee565b506040516001600160a01b038316907f33d4836e26414f126ba7c523af58fe71c1d40aa056c319ff4288b50970a1097f90600090a25090565b6002546001600160a01b031633146107765760405162461bcd60e51b81526004016105b990612099565b6016805460ff60a01b1916905560405133907f39bd4987083d038e3a5443b99572f8426ffe163b6b235b07e7370dff74b3919e90600090a2565b6015546016546040516310270e3d60e11b81526001600160a01b039182166004820152600092919091169063204e1c7a9060240160206040518083038186803b1580156107fc57600080fd5b505afa158015610810573d6000803e3d6000fd5b505050506040513d601f19601f8201168201806040525081019061083491906120ce565b905090565b60005460ff161561085c5760405162461bcd60e51b81526004016105b990611ff3565b610864611893565b61086c611911565b806108a65760405162461bcd60e51b815260206004820152600a602482015269115b5c1d1e48131a5cdd60b21b60448201526064016105b9565b60005b818110156109a5576108e38383838181106108c6576108c66120eb565b90506020020160208101906108db9190611efe565b600f9061186e565b610993576109198383838181106108fc576108fc6120eb565b90506020020160208101906109119190611efe565b600f90611a03565b506011805490600061092a83612117565b91905055507f6bc201575d15207e99d0768e5a03902307f4963938d08a25c182998691f3499d838383818110610962576109626120eb565b90506020020160208101906109779190611efe565b6040516001600160a01b03909116815260200160405180910390a15b8061099d81612117565b9150506108a9565b505050565b6007546000906001600160a01b03838116911614806105545750610554600d8361186e565b6000600260015414156109f45760405162461bcd60e51b81526004016105b990612132565b600260015560005460ff1615610a1c5760405162461bcd60e51b81526004016105b990611ff3565b610a24611a18565b610a2d82611a87565b6001805592915050565b6006546000906001600160a01b03838116911614806105545750610554600b8361186e565b6000610a68600f611b72565b15610a7d57610a78600f8361186e565b610554565b600192915050565b6002546001600160a01b03163314610aaf5760405162461bcd60e51b81526004016105b990612099565b610ab96000611b7c565b565b60005460ff1615610ade5760405162461bcd60e51b81526004016105b990611ff3565b610ae6611893565b610aee611911565b6001600160a01b038116610b445760405162461bcd60e51b815260206004820152601760248201527f496e76616c696420526f79616c204578656375746f722100000000000000000060448201526064016105b9565b6001600160a01b0381163b610b9b5760405162461bcd60e51b815260206004820152601a60248201527f496e76616c6964204578656375746f7220436f6e74726163742100000000000060448201526064016105b9565b600980546001600160a01b0319166001600160a01b0383169081179091556040517f16d61a8ae20f45aed7c5f705859e84b0292aabf52ce61496c63db9ab14c228b490600090a250565b60005460ff1615610c085760405162461bcd60e51b81526004016105b990611ff3565b610c10611893565b610c18611911565b6001600160a01b038116610c815760405162461bcd60e51b815260206004820152602a60248201527f496e76616c696420526f79616c20546f776572206164647265737321204275726044820152696e20616464726573732160b01b60648201526084016105b9565b6001600160a01b0381163b610cd85760405162461bcd60e51b815260206004820152601d60248201527f496e76616c696420526f79616c20546f77657220436f6e74726163742100000060448201526064016105b9565b6040516301ffc9a760e01b815263c515960360e01b60048201526001600160a01b038216906301ffc9a79060240160206040518083038186803b158015610d1e57600080fd5b505afa158015610d32573d6000803e3d6000fd5b505050506040513d601f19601f82011682018060405250810190610d569190612169565b610db05760405162461bcd60e51b815260206004820152602560248201527f446f6e7420696d706c656d656e742049526f79616c546f77657220696e746572604482015264666163652160d81b60648201526084016105b9565b600a80546001600160a01b0319166001600160a01b0383169081179091556040517fb81ec323534154acd3e1c9b851518d436dd9832b7bc4f35f708189b749d9106990600090a250565b60005460ff1615610e1d5760405162461bcd60e51b81526004016105b990611ff3565b610e25611893565b610e2d611911565b6040516301ffc9a760e01b8152634bba560b60e01b60048201526001600160a01b038216906301ffc9a79060240160206040518083038186803b158015610e7357600080fd5b505afa158015610e87573d6000803e3d6000fd5b505050506040513d601f19601f82011682018060405250810190610eab9190612169565b610f015760405162461bcd60e51b815260206004820152602160248201527f446f6e7420696d706c656d656e7420636f727265637420696e746572666163656044820152602160f81b60648201526084016105b9565b601280546001600160a01b0319166001600160a01b0383169081179091556040519081527fb7ad42dc93d5634698ff03ceffe0332fcf92508bb99f944b9e0e265166a141b5906020015b60405180910390a150565b600060026001541415610f7b5760405162461bcd60e51b81526004016105b990612132565b600260015560005460ff1615610fa35760405162461bcd60e51b81526004016105b990611ff3565b610fab611a18565b610a2d82611bce565b6000805460ff1615610fd85760405162461bcd60e51b81526004016105b990611ff3565b610fe061197f565b6001600160a01b0382166110065760405162461bcd60e51b81526004016105b99061201d565b6001600160a01b0382163b1561102e5760405162461bcd60e51b81526004016105b990612062565b611039600b8361186e565b156110805760405162461bcd60e51b815260206004820152601760248201527657616c6c657420616c726561647920616c6c6f7765642160481b60448201526064016105b9565b61108b600b83611a03565b506040516001600160a01b038316907fb55ab4bf29fb6e29d30fe1196694e9ac5b626f953a08aa22de6d76b2304413d090600090a25090565b60005460ff16156110e75760405162461bcd60e51b81526004016105b990611ff3565b6110ef611893565b6110f7611911565b6040516301ffc9a760e01b81526313f68ee360e11b60048201526001600160a01b038216906301ffc9a79060240160206040518083038186803b15801561113d57600080fd5b505afa158015611151573d6000803e3d6000fd5b505050506040513d601f19601f820116820180604052508101906111759190612169565b6111d25760405162461bcd60e51b815260206004820152602860248201527f517565656e4520446f6e7420696d706c656d656e7420636f727265637420696e604482015267746572666163652160c01b60648201526084016105b9565b601480546001600160a01b0319166001600160a01b0383169081179091556040519081527f1a5b40be9a6e447ced2023beb9af199c6c88bca756efc9417a2e15d43ad2346490602001610f4b565b60005460ff16156112435760405162461bcd60e51b81526004016105b990611ff3565b61124b611893565b611253611911565b6040516301ffc9a760e01b8152635494574760e11b60048201526001600160a01b038216906301ffc9a79060240160206040518083038186803b15801561129957600080fd5b505afa1580156112ad573d6000803e3d6000fd5b505050506040513d601f19601f820116820180604052508101906112d19190612169565b6113295760405162461bcd60e51b815260206004820152602360248201527f446f6e7420696d706c656d656e742049517565656e4c616220696e746572666160448201526263652160e81b60648201526084016105b9565b601380546001600160a01b0319166001600160a01b0383169081179091556040519081527f69e259a78ec6169676b5a0e8f8beb42863384a816e1dedcd372d1c8fe8f3081d90602001610f4b565b60006002600154141561139c5760405162461bcd60e51b81526004016105b990612132565b600260015560005460ff16156113c45760405162461bcd60e51b81526004016105b990611ff3565b6113cc611cb4565b6001600160a01b0382166113f25760405162461bcd60e51b81526004016105b99061201d565b6001600160a01b0382163b1561141a5760405162461bcd60e51b81526004016105b990612062565b600680546001600160a01b0319166001600160a01b0384169081179091556040517fdc5e1bf1c0418f56ec4d6c8272464812c890a511d44b12724284df6fe49db20290600090a25050600654600180556001600160a01b031690565b60005460ff16156114995760405162461bcd60e51b81526004016105b990611ff3565b6114a1611d11565b6114a9611911565b6001600160a01b03811661150a5760405162461bcd60e51b815260206004820152602260248201527f496e76616c69642044414f206164647265737321204275726e20616464726573604482015261732160f01b60648201526084016105b9565b6001600160a01b0381163b6115595760405162461bcd60e51b8152602060048201526015602482015274496e76616c69642044414f20436f6e74726163742160581b60448201526064016105b9565b600880546001600160a01b0319166001600160a01b0383169081179091556040517f8aad84fcad50e723fa3bcf0fb32c5bea4c71078b77b9aedfa638f146f3a3f7b990600090a250565b6002546001600160a01b031633146115cd5760405162461bcd60e51b81526004016105b990612099565b6001600160a01b0381166116325760405162461bcd60e51b815260206004820152602660248201527f4f776e61626c653a206e6577206f776e657220697320746865207a65726f206160448201526564647265737360d01b60648201526084016105b9565b61163b81611b7c565b50565b60005460ff16156116615760405162461bcd60e51b81526004016105b990611ff3565b611669611893565b611671611911565b600480546001600160a01b0319166001600160a01b0383169081179091556040517fe4445650be24dc57d85324bde2bc79571389abac71a7126fb392df5aa012600f90600090a250565b60005460ff16156116de5760405162461bcd60e51b81526004016105b990611ff3565b6116e6611893565b6116ee611911565b60005b6116fb600f611b72565b81101561172b57611718611710600f83611d71565b600f906119ee565b508061172381612117565b9150506116f1565b506040513381527fcd941f5dba8b8cb715856c5d095ce9b8e017769b9caa1ef0c37b198b1616c6509060200160405180910390a1565b6000805460ff16156117855760405162461bcd60e51b81526004016105b990611ff3565b61178d611a18565b6001600160a01b0382166117ee5760405162461bcd60e51b815260206004820152602260248201527f496e76616c696420646576206164647265737321204275726e20616464726573604482015261732160f01b60648201526084016105b9565b6001600160a01b0382163b156118165760405162461bcd60e51b81526004016105b990612062565b600780546001600160a01b0319166001600160a01b0384169081179091556040517fbe3352e3dcf6d06f3aa41aeec32498b54963b5a2a47cb7546b1a5eb464b7b7a090600090a250506007546001600160a01b031690565b6001600160a01b038116600090815260018301602052604081205415155b9392505050565b6002546001600160a01b03163314806118b057506118b0336109aa565b806118c557506009546001600160a01b031633145b610ab95760405162461bcd60e51b815260206004820152601960248201527f4e6f74204f776e65722c20446576656c6f7065722c2044414f0000000000000060448201526064016105b9565b601654600160a01b900460ff168061193357506009546001600160a01b031633145b610ab95760405162461bcd60e51b815260206004820152601760248201527f4e6f7420496d706c656d656e746174696f6e2c2044414f00000000000000000060448201526064016105b9565b6002546001600160a01b03163314806119a257506006546001600160a01b031633145b610ab95760405162461bcd60e51b815260206004820152601760248201527f4e6f74204f776e65722c2043686965662041727469737400000000000000000060448201526064016105b9565b600061188c836001600160a01b038416611d7d565b600061188c836001600160a01b038416611e70565b6002546001600160a01b0316331480611a3b57506007546001600160a01b031633145b610ab95760405162461bcd60e51b815260206004820152601a60248201527f4e6f74204f776e65722c20436869656620446576656c6f70657200000000000060448201526064016105b9565b60006001600160a01b038216611aaf5760405162461bcd60e51b81526004016105b99061218b565b6001600160a01b0382163b15611ad75760405162461bcd60e51b81526004016105b990612062565b611ae2600d8361186e565b611b2e5760405162461bcd60e51b815260206004820152601b60248201527f57616c6c6574206e6f7420616c6c6f77656420616c6c6f77656421000000000060448201526064016105b9565b611b39600d836119ee565b506040516001600160a01b038316907f82de911888481c7214316239195038d4164f02a184f1fd14996150f640c78a8890600090a25090565b6000610554825490565b600280546001600160a01b038381166001600160a01b0319831681179093556040519116919082907f8be0079c531659141344cd1fd0a4f28419497f9722a3daafe3b4186f6b6457e090600090a35050565b60006001600160a01b038216611bf65760405162461bcd60e51b81526004016105b99061218b565b6001600160a01b0382163b15611c1e5760405162461bcd60e51b81526004016105b990612062565b611c29600d8361186e565b15611c705760405162461bcd60e51b815260206004820152601760248201527657616c6c657420616c726561647920616c6c6f7765642160481b60448201526064016105b9565b611c7b600d83611a03565b506040516001600160a01b038316907f4885627ad018de1ce4675a5a8910c06760b039dd385692b718f48de690a64c2990600090a25090565b6002546001600160a01b0316331480611cd15750611cd133610a37565b610ab95760405162461bcd60e51b8152602060048201526011602482015270139bdd0813dddb995c8b08105c9d1a5cdd607a1b60448201526064016105b9565b6002546001600160a01b0316331480611d3457506009546001600160a01b031633145b610ab95760405162461bcd60e51b815260206004820152600e60248201526d4e6f74204f776e65722c2044414f60901b60448201526064016105b9565b600061188c8383611ebf565b60008181526001830160205260408120548015611e66576000611da16001836121d3565b8554909150600090611db5906001906121d3565b9050818114611e1a576000866000018281548110611dd557611dd56120eb565b9060005260206000200154905080876000018481548110611df857611df86120eb565b6000918252602080832090910192909255918252600188019052604090208390555b8554869080611e2b57611e2b6121ea565b600190038181906000526020600020016000905590558560010160008681526020019081526020016000206000905560019350505050610554565b6000915050610554565b6000818152600183016020526040812054611eb757508154600181810184556000848152602080822090930184905584548482528286019093526040902091909155610554565b506000610554565b6000826000018281548110611ed657611ed66120eb565b9060005260206000200154905092915050565b6001600160a01b038116811461163b57600080fd5b600060208284031215611f1057600080fd5b813561188c81611ee9565b600060208284031215611f2d57600080fd5b81356001600160e01b03198116811461188c57600080fd5b60008060408385031215611f5857600080fd5b8235611f6381611ee9565b91506020830135611f7381611ee9565b809150509250929050565b60008060208385031215611f9157600080fd5b823567ffffffffffffffff80821115611fa957600080fd5b818501915085601f830112611fbd57600080fd5b813581811115611fcc57600080fd5b8660208260051b8501011115611fe157600080fd5b60209290920196919550909350505050565b60208082526010908201526f14185d5cd8589b194e881c185d5cd95960821b604082015260600190565b60208082526025908201527f496e76616c696420617274697374206164647265737321204275726e20616464604082015264726573732160d81b606082015260800190565b60208082526019908201527f4d75737420626520612077616c6c657420616464726573732100000000000000604082015260600190565b6020808252818101527f4f776e61626c653a2063616c6c6572206973206e6f7420746865206f776e6572604082015260600190565b6000602082840312156120e057600080fd5b815161188c81611ee9565b634e487b7160e01b600052603260045260246000fd5b634e487b7160e01b600052601160045260246000fd5b600060001982141561212b5761212b612101565b5060010190565b6020808252601f908201527f5265656e7472616e637947756172643a207265656e7472616e742063616c6c00604082015260600190565b60006020828403121561217b57600080fd5b8151801515811461188c57600080fd5b60208082526028908201527f496e76616c696420646576656c6f706572206164647265737321204275726e20604082015267616464726573732160c01b606082015260800190565b6000828210156121e5576121e5612101565b500390565b634e487b7160e01b600052603160045260246000fdfea2646970667358221220fb8b8bb4e5e201954d20fe2f26d92f735cbd716fa4adc387045dd88840f5c4a064736f6c63430008090033"
}