{
  "address": "0xDC11f7E700A4c898AE5CAddB1082cFfa76512aDD",
  "abi": [
    {
      "inputs": [
        {
          "internalType": "contract IQueenPalace",
          "name": "_queenPalace",
          "type": "address"
        }
      ],
      "stateMutability": "nonpayable",
      "type": "constructor"
    },
    {
      "anonymous": false,
      "inputs": [
        {
          "indexed": true,
          "internalType": "address",
          "name": "previousOwner",
          "type": "address"
        },
        {
          "indexed": true,
          "internalType": "address",
          "name": "newOwner",
          "type": "address"
        }
      ],
      "name": "OwnershipTransferred",
      "type": "event"
    },
    {
      "anonymous": false,
      "inputs": [
        {
          "indexed": false,
          "internalType": "address",
          "name": "account",
          "type": "address"
        }
      ],
      "name": "Paused",
      "type": "event"
    },
    {
      "anonymous": false,
      "inputs": [
        {
          "indexed": false,
          "internalType": "address",
          "name": "account",
          "type": "address"
        }
      ],
      "name": "Unpaused",
      "type": "event"
    },
    {
      "inputs": [
        {
          "internalType": "address",
          "name": "_allowee",
          "type": "address"
        }
      ],
      "name": "allowOnEcosystem",
      "outputs": [
        {
          "internalType": "bool",
          "name": "status",
          "type": "bool"
        }
      ],
      "stateMutability": "nonpayable",
      "type": "function"
    },
    {
      "inputs": [
        {
          "internalType": "uint256",
          "name": "_queeneId",
          "type": "uint256"
        },
        {
          "internalType": "bool",
          "name": "isSir",
          "type": "bool"
        }
      ],
      "name": "buildDna",
      "outputs": [
        {
          "components": [
            {
              "internalType": "uint256",
              "name": "traitId",
              "type": "uint256"
            },
            {
              "internalType": "uint256",
              "name": "rarityId",
              "type": "uint256"
            },
            {
              "internalType": "uint256",
              "name": "trace",
              "type": "uint256"
            }
          ],
          "internalType": "struct RoyalLibrary.sDNA[]",
          "name": "dna",
          "type": "tuple[]"
        }
      ],
      "stateMutability": "view",
      "type": "function"
    },
    {
      "inputs": [
        {
          "components": [
            {
              "internalType": "uint256",
              "name": "queeneId",
              "type": "uint256"
            },
            {
              "internalType": "uint256",
              "name": "description",
              "type": "uint256"
            },
            {
              "internalType": "string",
              "name": "finalArt",
              "type": "string"
            },
            {
              "components": [
                {
                  "internalType": "uint256",
                  "name": "traitId",
                  "type": "uint256"
                },
                {
                  "internalType": "uint256",
                  "name": "rarityId",
                  "type": "uint256"
                },
                {
                  "internalType": "uint256",
                  "name": "trace",
                  "type": "uint256"
                }
              ],
              "internalType": "struct RoyalLibrary.sDNA[]",
              "name": "dna",
              "type": "tuple[]"
            },
            {
              "internalType": "uint8",
              "name": "queenesGallery",
              "type": "uint8"
            },
            {
              "internalType": "uint8",
              "name": "sirAward",
              "type": "uint8"
            }
          ],
          "internalType": "struct RoyalLibrary.sQUEEN",
          "name": "_queene",
          "type": "tuple"
        },
        {
          "internalType": "string",
          "name": "_ipfsUri",
          "type": "string"
        }
      ],
      "name": "constructTokenUri",
      "outputs": [
        {
          "internalType": "string",
          "name": "",
          "type": "string"
        }
      ],
      "stateMutability": "view",
      "type": "function"
    },
    {
      "inputs": [
        {
          "internalType": "address",
          "name": "_disallowee",
          "type": "address"
        }
      ],
      "name": "disallowOnEcosystem",
      "outputs": [
        {
          "internalType": "bool",
          "name": "status",
          "type": "bool"
        }
      ],
      "stateMutability": "nonpayable",
      "type": "function"
    },
    {
      "inputs": [
        {
          "internalType": "uint256",
          "name": "_queeneId",
          "type": "uint256"
        },
        {
          "internalType": "bool",
          "name": "isSir",
          "type": "bool"
        }
      ],
      "name": "generateQueen",
      "outputs": [
        {
          "components": [
            {
              "internalType": "uint256",
              "name": "queeneId",
              "type": "uint256"
            },
            {
              "internalType": "uint256",
              "name": "description",
              "type": "uint256"
            },
            {
              "internalType": "string",
              "name": "finalArt",
              "type": "string"
            },
            {
              "components": [
                {
                  "internalType": "uint256",
                  "name": "traitId",
                  "type": "uint256"
                },
                {
                  "internalType": "uint256",
                  "name": "rarityId",
                  "type": "uint256"
                },
                {
                  "internalType": "uint256",
                  "name": "trace",
                  "type": "uint256"
                }
              ],
              "internalType": "struct RoyalLibrary.sDNA[]",
              "name": "dna",
              "type": "tuple[]"
            },
            {
              "internalType": "uint8",
              "name": "queenesGallery",
              "type": "uint8"
            },
            {
              "internalType": "uint8",
              "name": "sirAward",
              "type": "uint8"
            }
          ],
          "internalType": "struct RoyalLibrary.sQUEEN",
          "name": "",
          "type": "tuple"
        }
      ],
      "stateMutability": "view",
      "type": "function"
    },
    {
      "inputs": [
        {
          "components": [
            {
              "internalType": "uint256",
              "name": "traitId",
              "type": "uint256"
            },
            {
              "internalType": "uint256",
              "name": "rarityId",
              "type": "uint256"
            },
            {
              "internalType": "uint256",
              "name": "trace",
              "type": "uint256"
            }
          ],
          "internalType": "struct RoyalLibrary.sDNA[]",
          "name": "_dna",
          "type": "tuple[]"
        }
      ],
      "name": "getQueenRarity",
      "outputs": [
        {
          "internalType": "enum RoyalLibrary.queeneRarity",
          "name": "finalRarity",
          "type": "uint8"
        }
      ],
      "stateMutability": "pure",
      "type": "function"
    },
    {
      "inputs": [
        {
          "components": [
            {
              "internalType": "uint256",
              "name": "traitId",
              "type": "uint256"
            },
            {
              "internalType": "uint256",
              "name": "rarityId",
              "type": "uint256"
            },
            {
              "internalType": "uint256",
              "name": "trace",
              "type": "uint256"
            }
          ],
          "internalType": "struct RoyalLibrary.sDNA[]",
          "name": "_dna",
          "type": "tuple[]"
        },
        {
          "internalType": "uint256[]",
          "name": "map",
          "type": "uint256[]"
        }
      ],
      "name": "getQueenRarityBidIncrement",
      "outputs": [
        {
          "internalType": "uint256",
          "name": "value",
          "type": "uint256"
        }
      ],
      "stateMutability": "pure",
      "type": "function"
    },
    {
      "inputs": [
        {
          "components": [
            {
              "internalType": "uint256",
              "name": "traitId",
              "type": "uint256"
            },
            {
              "internalType": "uint256",
              "name": "rarityId",
              "type": "uint256"
            },
            {
              "internalType": "uint256",
              "name": "trace",
              "type": "uint256"
            }
          ],
          "internalType": "struct RoyalLibrary.sDNA[]",
          "name": "_dna",
          "type": "tuple[]"
        }
      ],
      "name": "getQueenRarityName",
      "outputs": [
        {
          "internalType": "string",
          "name": "rarityName",
          "type": "string"
        }
      ],
      "stateMutability": "pure",
      "type": "function"
    },
    {
      "inputs": [
        {
          "internalType": "uint256",
          "name": "_queeneId",
          "type": "uint256"
        },
        {
          "internalType": "string",
          "name": "_ipfsUri",
          "type": "string"
        }
      ],
      "name": "getTokenUriDescriptor",
      "outputs": [
        {
          "internalType": "string",
          "name": "",
          "type": "string"
        }
      ],
      "stateMutability": "view",
      "type": "function"
    },
    {
      "inputs": [
        {
          "internalType": "address",
          "name": "_allowee",
          "type": "address"
        }
      ],
      "name": "isAllowedOnEconsystem",
      "outputs": [
        {
          "internalType": "bool",
          "name": "status",
          "type": "bool"
        }
      ],
      "stateMutability": "view",
      "type": "function"
    },
    {
      "inputs": [
        {
          "internalType": "address",
          "name": "_address",
          "type": "address"
        }
      ],
      "name": "isOwner",
      "outputs": [
        {
          "internalType": "bool",
          "name": "",
          "type": "bool"
        }
      ],
      "stateMutability": "view",
      "type": "function"
    },
    {
      "inputs": [],
      "name": "owner",
      "outputs": [
        {
          "internalType": "address",
          "name": "",
          "type": "address"
        }
      ],
      "stateMutability": "view",
      "type": "function"
    },
    {
      "inputs": [],
      "name": "pause",
      "outputs": [],
      "stateMutability": "nonpayable",
      "type": "function"
    },
    {
      "inputs": [],
      "name": "paused",
      "outputs": [
        {
          "internalType": "bool",
          "name": "",
          "type": "bool"
        }
      ],
      "stateMutability": "view",
      "type": "function"
    },
    {
      "inputs": [
        {
          "components": [
            {
              "internalType": "uint256",
              "name": "traitId",
              "type": "uint256"
            },
            {
              "internalType": "uint256",
              "name": "rarityId",
              "type": "uint256"
            },
            {
              "internalType": "uint256",
              "name": "trace",
              "type": "uint256"
            }
          ],
          "internalType": "struct RoyalLibrary.sDNA[]",
          "name": "_dna",
          "type": "tuple[]"
        }
      ],
      "name": "produceBlueBlood",
      "outputs": [
        {
          "components": [
            {
              "internalType": "uint256",
              "name": "traitId",
              "type": "uint256"
            },
            {
              "internalType": "uint256",
              "name": "rarityId",
              "type": "uint256"
            },
            {
              "internalType": "string",
              "name": "artName",
              "type": "string"
            },
            {
              "internalType": "string",
              "name": "artUri",
              "type": "string"
            }
          ],
          "internalType": "struct RoyalLibrary.sBLOOD[]",
          "name": "blood",
          "type": "tuple[]"
        }
      ],
      "stateMutability": "view",
      "type": "function"
    },
    {
      "inputs": [],
      "name": "renounceOwnership",
      "outputs": [],
      "stateMutability": "nonpayable",
      "type": "function"
    },
    {
      "inputs": [
        {
          "internalType": "contract IQueenPalace",
          "name": "_queenPalace",
          "type": "address"
        }
      ],
      "name": "setQueenPalace",
      "outputs": [],
      "stateMutability": "nonpayable",
      "type": "function"
    },
    {
      "inputs": [
        {
          "internalType": "bytes4",
          "name": "interfaceId",
          "type": "bytes4"
        }
      ],
      "name": "supportsInterface",
      "outputs": [
        {
          "internalType": "bool",
          "name": "",
          "type": "bool"
        }
      ],
      "stateMutability": "view",
      "type": "function"
    },
    {
      "inputs": [
        {
          "internalType": "address",
          "name": "newOwner",
          "type": "address"
        }
      ],
      "name": "transferOwnership",
      "outputs": [],
      "stateMutability": "nonpayable",
      "type": "function"
    },
    {
      "inputs": [],
      "name": "unpause",
      "outputs": [],
      "stateMutability": "nonpayable",
      "type": "function"
    }
  ],
  "numDeployments": 6,
  "bytecode": "0x60806040523480156200001157600080fd5b50604051620038e2380380620038e283398101604081905262000034916200015a565b6001805460ff191681556002556200004c3362000084565b6200005e635494574760e11b620000d6565b600480546001600160a01b0319166001600160a01b03929092169190911790556200018c565b600380546001600160a01b038381166001600160a01b0319831681179093556040519116919082907f8be0079c531659141344cd1fd0a4f28419497f9722a3daafe3b4186f6b6457e090600090a35050565b6001600160e01b03198082161415620001355760405162461bcd60e51b815260206004820152601c60248201527f4552433136353a20696e76616c696420696e7465726661636520696400000000604482015260640160405180910390fd5b6001600160e01b0319166000908152602081905260409020805460ff19166001179055565b6000602082840312156200016d57600080fd5b81516001600160a01b03811681146200018557600080fd5b9392505050565b613746806200019c6000396000f3fe608060405234801561001057600080fd5b506004361061012c5760003560e01c8063715018a6116100ad5780638fe59524116100715780638fe5952414610279578063a58454e61461028c578063a8baf8b0146102ac578063adad51e0146102bf578063f2fde38b146102df57600080fd5b8063715018a61461021b578063803b3b2a146102235780638456cb5914610236578063851e08691461023e5780638da5cb5b1461025e57600080fd5b8063549c89ec116100f4578063549c89ec146101a95780635c975abb146101bc5780636f81354e146101c75780636f904024146101da57806370925f67146101fa57600080fd5b806301ffc9a7146101315780632f54bf6e14610159578063395062ce1461016c5780633f4ba83a146101815780634e72528c14610189575b600080fd5b61014461013f3660046123b8565b6102f2565b60405190151581526020015b60405180910390f35b6101446101673660046123f7565b610332565b61017f61017a3660046123f7565b610360565b005b61017f610410565b61019c610197366004612545565b610466565b60405161015091906125e7565b61019c6101b73660046126be565b6105da565b60015460ff16610144565b61019c6101d536600461270c565b6106b0565b6101ed6101e83660046127fb565b61074c565b604051610150919061287c565b61020d6102083660046128f0565b6109a7565b604051908152602001610150565b61017f610a1d565b6101446102313660046123f7565b610a51565b61017f610acc565b61025161024c3660046127fb565b610b44565b6040516101509190612989565b6003546040516001600160a01b039091168152602001610150565b6101446102873660046123f7565b610f11565b61029f61029a3660046126be565b610f8e565b60405161015091906129b2565b6101446102ba3660046123f7565b611019565b6102d26102cd3660046126be565b611061565b60405161015091906129da565b61017f6102ed3660046123f7565b6113a9565b60006301ffc9a760e01b6001600160e01b03198316148061032c57506001600160e01b0319821660009081526020819052604090205460ff165b92915050565b6000816001600160a01b03166103506003546001600160a01b031690565b6001600160a01b03161492915050565b6002805414156103b75760405162461bcd60e51b815260206004820152601f60248201527f5265656e7472616e637947756172643a207265656e7472616e742063616c6c0060448201526064015b60405180910390fd5b6002805560015460ff166103dd5760405162461bcd60e51b81526004016103ae90612a68565b6103e5611444565b6103ed611524565b600480546001600160a01b0319166001600160a01b038316179055506001600255565b6003546001600160a01b0316331461043a5760405162461bcd60e51b81526004016103ae90612a96565b60015460ff1661045c5760405162461bcd60e51b81526004016103ae90612a68565b61046461168b565b565b60048054604080516303b4fda760e01b815290516060936000936001600160a01b0316926303b4fda79281830192602092829003018186803b1580156104ab57600080fd5b505afa1580156104bf573d6000803e3d6000fd5b505050506040513d601f19601f820116820180604052508101906104e39190612acb565b6001600160a01b03166323b2cfcf856040518263ffffffff1660e01b815260040161051091815260200190565b60006040518083038186803b15801561052857600080fd5b505afa15801561053c573d6000803e3d6000fd5b505050506040513d6000823e601f3d908101601f191682016040526105649190810190612bde565b905061057381600001516116f7565b610585826020015183606001516117fc565b8483604001516105ae85606001518660a0015160ff16600114876080015160ff1660011461193a565b6040516020016105c2959493929190612ca4565b60405160208183030381529060405291505092915050565b606060006105e783610f8e565b60038111156105f8576105f861299c565b9050600381141561062a5750506040805180820190915260098152684c6567656e6461727960b81b6020820152919050565b600281141561065b57505060408051808201909152600a81526953757065722d5261726560b01b6020820152919050565b60018114156106865750506040805180820190915260048152635261726560e01b6020820152919050565b505060408051808201909152600681526521b7b6b6b7b760d11b6020820152919050565b50919050565b60606107256106c284600001516116f7565b6106d4856020015186606001516117fc565b8486604001516106fd88606001518960a0015160ff166001148a6080015160ff1660011461193a565b604051602001610711959493929190612ca4565b604051602081830303815290604052611cf7565b6040516020016107359190612d85565b604051602081830303815290604052905092915050565b61078b6040518060c0016040528060008152602001600081526020016060815260200160608152602001600060ff168152602001600060ff1681525090565b600083116107d05760405162461bcd60e51b8152602060048201526012602482015271496e76616c696420517565656e452069642160701b60448201526064016103ae565b60006107dc8484610b44565b905060005b60038110156109285760048054604080516303b4fda760e01b815290516001600160a01b03909216926303b4fda7928282019260209290829003018186803b15801561082c57600080fd5b505afa158015610840573d6000803e3d6000fd5b505050506040513d601f19601f820116820180604052508101906108649190612acb565b6001600160a01b03166301e75bd2836040516020016108839190612989565b60408051808303601f1901815290829052805160209091012060e083901b6001600160e01b0319168252600482015260240160206040518083038186803b1580156108cd57600080fd5b505afa1580156108e1573d6000803e3d6000fd5b505050506040513d601f19601f820116820180604052508101906109059190612dca565b15610928576109148585610b44565b91508061092081612dfd565b9150506107e1565b6040518060c0016040528086815260200161094b8761094686610f8e565b611e4a565b815260408051602081810183526000825283015281018490526060016010871115806109745750855b61097f576000610982565b60015b60ff16815260200185610996576000610999565b60015b60ff16905295945050505050565b6000805b8451811015610a1557838360018784815181106109ca576109ca612e18565b6020026020010151602001516109e09190612e2e565b8181106109ef576109ef612e18565b9050602002013582610a019190612e45565b915080610a0d81612dfd565b9150506109ab565b509392505050565b6003546001600160a01b03163314610a475760405162461bcd60e51b81526004016103ae90612a96565b6104646000611fbb565b6003546000906001600160a01b03163314610a7e5760405162461bcd60e51b81526004016103ae90612a96565b6001600160a01b0382163b610aa55760405162461bcd60e51b81526004016103ae90612e5d565b506001600160a01b0381166000908152600560205260408120805460ff191690555b919050565b6003546001600160a01b03163314610af65760405162461bcd60e51b81526004016103ae90612a96565b60015460ff1615610b3c5760405162461bcd60e51b815260206004820152601060248201526f14185d5cd8589b194e881c185d5cd95960821b60448201526064016103ae565b61046461200d565b6004805460408051633dfb353b60e01b815290516060936000936001600160a01b031692633dfb353b9281830192602092829003018186803b158015610b8957600080fd5b505afa158015610b9d573d6000803e3d6000fd5b505050506040513d601f19601f82011682018060405250810190610bc19190612acb565b604051638d6ac21360e01b8152600160048201526001600160a01b039190911690638d6ac2139060240160006040518083038186803b158015610c0357600080fd5b505afa158015610c17573d6000803e3d6000fd5b505050506040513d6000823e601f3d908101601f19168201604052610c3f9190810190612eee565b905080516001600160401b03811115610c5a57610c5a612414565b604051908082528060200260200182016040528015610caf57816020015b610c9c60405180606001604052806000815260200160008152602001600081525090565b815260200190600190039081610c785790505b5091506000805b8251811015610f08576000610ce987858481518110610cd757610cd7612e18565b60200260200101516000015188612086565b90506000610cf8600143612e2e565b408885878681518110610d0d57610d0d612e18565b602002602001015160000151610d239190612fa9565b604080516020810194909452830191909152606082015244406080820152424060a082015260c00160408051601f19818403018152828252805160209182012060048054633dfb353b60e01b865293519195506000946001600160a01b0390941693633dfb353b938282019390929091829003018186803b158015610da757600080fd5b505afa158015610dbb573d6000803e3d6000fd5b505050506040513d601f19601f82011682018060405250810190610ddf9190612acb565b6001600160a01b0316631548d9e6878681518110610dff57610dff612e18565b602002602001015160000151856040518363ffffffff1660e01b8152600401610e32929190918252602082015260400190565b60206040518083038186803b158015610e4a57600080fd5b505afa158015610e5e573d6000803e3d6000fd5b505050506040513d601f19601f82011682018060405250810190610e829190612fc8565b90506040518060600160405280878681518110610ea157610ea1612e18565b60200260200101516000015181526020018481526020018284610ec49190612ff7565b815250878581518110610ed957610ed9612e18565b6020908102919091010152610ef061010086612e45565b94505050508080610f0090612dfd565b915050610cb6565b50505092915050565b6003546000906001600160a01b03163314610f3e5760405162461bcd60e51b81526004016103ae90612a96565b6001600160a01b0382163b610f655760405162461bcd60e51b81526004016103ae90612e5d565b506001600160a01b03166000908152600560205260409020805460ff1916600190811790915590565b60006001815b8351811015610fda57838181518110610faf57610faf612e18565b60200260200101516020015182610fc69190612fa9565b915080610fd281612dfd565b915050610f94565b5060048111610fec5750600092915050565b601b8111610ffd5750600192915050565b6101448110156110105750600292915050565b50600392915050565b60006001600160a01b0382163b6110425760405162461bcd60e51b81526004016103ae90612e5d565b506001600160a01b031660009081526005602052604090205460ff1690565b606060008251116110b45760405162461bcd60e51b815260206004820181905260248201527f43616e27742070726f6475636520626c6f6f6420776974686f757420646e612160448201526064016103ae565b81516001600160401b038111156110cd576110cd612414565b60405190808252806020026020018201604052801561112957816020015b6111166040518060800160405280600081526020016000815260200160608152602001606081525090565b8152602001906001900390816110eb5790505b50905060005b82518110156106aa576111636040518060800160405280600081526020016000815260200160608152602001606081525090565b6004805460408051633dfb353b60e01b815290516001600160a01b0390921692633dfb353b928282019260209290829003018186803b1580156111a557600080fd5b505afa1580156111b9573d6000803e3d6000fd5b505050506040513d601f19601f820116820180604052508101906111dd9190612acb565b6001600160a01b0316630f4d962b8584815181106111fd576111fd612e18565b60200260200101516000015186858151811061121b5761121b612e18565b60200260200101516020015187868151811061123957611239612e18565b6020026020010151604001516040518463ffffffff1660e01b8152600401611274939291909283526020830191909152604082015260600190565b60006040518083038186803b15801561128c57600080fd5b505afa9250505080156112c157506040513d6000823e601f3d908101601f191682016040526112be919081019061300b565b60015b611313576112cd6130b3565b806308c379a0141561130757506112e26130cf565b806112ed5750611309565b8060405162461bcd60e51b81526004016103ae91906125e7565b505b3d6000803e3d6000fd5b9050604051806080016040528085848151811061133257611332612e18565b602002602001015160000151815260200185848151811061135557611355612e18565b602002602001015160200151815260200182604001518152602001826060015181525083838151811061138a5761138a612e18565b60200260200101819052505080806113a190612dfd565b91505061112f565b6003546001600160a01b031633146113d35760405162461bcd60e51b81526004016103ae90612a96565b6001600160a01b0381166114385760405162461bcd60e51b815260206004820152602660248201527f4f776e61626c653a206e6577206f776e657220697320746865207a65726f206160448201526564647265737360d01b60648201526084016103ae565b61144181611fbb565b50565b6003546001600160a01b03163314806114e75750600480546040805163406194c560e01b815290516001600160a01b039092169263406194c5928282019260209290829003018186803b15801561149a57600080fd5b505afa1580156114ae573d6000803e3d6000fd5b505050506040513d601f19601f820116820180604052508101906114d29190612acb565b6001600160a01b0316336001600160a01b0316145b6104645760405162461bcd60e51b815260206004820152600e60248201526d4e6f74204f776e65722c2044414f60901b60448201526064016103ae565b60048054604080516302b2897560e11b815290516001600160a01b039092169263056512ea928282019260209290829003018186803b15801561156657600080fd5b505afa15801561157a573d6000803e3d6000fd5b505050506040513d601f19601f8201168201806040525081019061159e9190612dca565b806116335750600480546040805163406194c560e01b815290516001600160a01b039092169263406194c5928282019260209290829003018186803b1580156115e657600080fd5b505afa1580156115fa573d6000803e3d6000fd5b505050506040513d601f19601f8201168201806040525081019061161e9190612acb565b6001600160a01b0316336001600160a01b0316145b6104645760405162461bcd60e51b8152602060048201526024808201527f4e6f74204f6e20496d706c656d656e746174696f6e2073656e646572206e6f746044820152632044414f60e01b60648201526084016103ae565b60015460ff166116ad5760405162461bcd60e51b81526004016103ae90612a68565b6001805460ff191690557f5db9ee0a495bf2e6ff9c91a7834c1ba4fdd244a5e8aa4e537bd38aeae4b073aa335b6040516001600160a01b03909116815260200160405180910390a1565b60608161171b5750506040805180820190915260018152600360fc1b602082015290565b8160005b8115611745578061172f81612dfd565b915061173e9050600a83613158565b915061171f565b6000816001600160401b0381111561175f5761175f612414565b6040519080825280601f01601f191660200182016040528015611789576020820181803683370190505b5090505b84156117f45761179e600183612e2e565b91506117ab600a86612ff7565b6117b6906030612e45565b60f81b8183815181106117cb576117cb612e18565b60200101906001600160f81b031916908160001a9053506117ed600a86613158565b945061178d565b949350505050565b6060600061180983610f8e565b9050611814836105da565b6004805460408051633dfb353b60e01b815290516001600160a01b0390921692633dfb353b928282019260209290829003018186803b15801561185657600080fd5b505afa15801561186a573d6000803e3d6000fd5b505050506040513d601f19601f8201168201806040525081019061188e9190612acb565b6001600160a01b0316632d22ebf88360038111156118ae576118ae61299c565b876040518363ffffffff1660e01b81526004016118d5929190918252602082015260400190565b60006040518083038186803b1580156118ed57600080fd5b505afa158015611901573d6000803e3d6000fd5b505050506040513d6000823e601f3d908101601f19168201604052611929919081019061316c565b6040516020016105c29291906131a0565b6060600061194785611061565b60408051808201909152600f81526e2261747472696275746573223a205b60881b602082015290915060005b8251811015611baf5780156119a957816040516020016119939190613200565b60405160208183030381529060405291506119cc565b816040516020016119ba9190613235565b60405160208183030381529060405291505b81600460009054906101000a90046001600160a01b03166001600160a01b0316633dfb353b6040518163ffffffff1660e01b815260040160206040518083038186803b158015611a1b57600080fd5b505afa158015611a2f573d6000803e3d6000fd5b505050506040513d601f19601f82011682018060405250810190611a539190612acb565b6001600160a01b031663acb586df858481518110611a7357611a73612e18565b6020026020010151600001516040518263ffffffff1660e01b8152600401611a9d91815260200190565b60006040518083038186803b158015611ab557600080fd5b505afa158015611ac9573d6000803e3d6000fd5b505050506040513d6000823e601f3d908101601f19168201604052611af19190810190613269565b60200151604051602001611b0692919061329d565b604051602081830303815290604052915081604051602001611b2891906132cc565b604051602081830303815290604052915081838281518110611b4c57611b4c612e18565b602002602001015160400151604051602001611b6992919061329d565b604051602081830303815290604052915081604051602001611b8b91906132fd565b60405160208183030381529060405291508080611ba790612dfd565b915050611973565b506000611bbb87610f8e565b90506000816003811115611bd157611bd161299c565b1415611bfe5781604051602001611be89190613323565b6040516020818303038152906040529150611c77565b6001816003811115611c1257611c1261299c565b1415611c295781604051602001611be89190613364565b6002816003811115611c3d57611c3d61299c565b1415611c545781604051602001611be891906133a5565b81604051602001611c6591906133e6565b60405160208183030381529060405291505b8515611ca05781604051602001611c8e9190613427565b60405160208183030381529060405291505b8415611cc95781604051602001611cb7919061347b565b60405160208183030381529060405291505b81604051602001611cda91906134ed565b60408051601f1981840301815291905293505050505b9392505050565b6060815160001415611d1757505060408051602081019091526000815290565b60006040518060600160405280604081526020016136d16040913990506000600384516002611d469190612e45565b611d509190613158565b611d5b906004612fa9565b6001600160401b03811115611d7257611d72612414565b6040519080825280601f01601f191660200182016040528015611d9c576020820181803683370190505b509050600182016020820185865187015b80821015611e08576003820191508151603f8160121c168501518453600184019350603f81600c1c168501518453600184019350603f8160061c168501518453600184019350603f8116850151845350600183019250611dad565b5050600386510660018114611e245760028114611e3757611e3f565b603d6001830353603d6002830353611e3f565b603d60018303535b509195945050505050565b600080611e58600143612e2e565b4084846003811115611e6c57611e6c61299c565b604080516020810194909452830191909152606082015244406080820152424060a082015260c00160408051601f19818403018152828252805160209182012060048054633dfb353b60e01b865293519195506001600160a01b0390931693633dfb353b93808201939291829003018186803b158015611eeb57600080fd5b505afa158015611eff573d6000803e3d6000fd5b505050506040513d601f19601f82011682018060405250810190611f239190612acb565b6001600160a01b03166345514183846003811115611f4357611f4361299c565b6040518263ffffffff1660e01b8152600401611f6191815260200190565b60206040518083038186803b158015611f7957600080fd5b505afa158015611f8d573d6000803e3d6000fd5b505050506040513d601f19601f82011682018060405250810190611fb19190612fc8565b6117f49082612ff7565b600380546001600160a01b038381166001600160a01b0319831681179093556040519116919082907f8be0079c531659141344cd1fd0a4f28419497f9722a3daafe3b4186f6b6457e090600090a35050565b60015460ff16156120535760405162461bcd60e51b815260206004820152601060248201526f14185d5cd8589b194e881c185d5cd95960821b60448201526064016103ae565b6001805460ff1916811790557f62e78cea01bee320cd4e420270b5ea74000d11b0c9f74754ebdbfc544b05a258336116da565b6004805460408051633dfb353b60e01b8152905160009384936001600160a01b031692633dfb353b9281830192602092829003018186803b1580156120ca57600080fd5b505afa1580156120de573d6000803e3d6000fd5b505050506040513d601f19601f820116820180604052508101906121029190612acb565b604051636d08cff160e01b815260016004820152602481018690526001600160a01b039190911690636d08cff19060440160006040518083038186803b15801561214b57600080fd5b505afa15801561215f573d6000803e3d6000fd5b505050506040513d6000823e601f3d908101601f191682016040526121879190810190613512565b90506000612196600143612e2e565b40866121a487610100612fa9565b604080516020810194909452830191909152606082015244406080820152424060a082015260c0016040516020818303038152906040528051906020012060001c905085600114156122645784600114806122075750612205600286612ff7565b155b1561224057816001835161221b9190612e2e565b8151811061222b5761222b612e18565b60200260200101516000015192505050611cf0565b816002835161224f9190612e2e565b61225a600284612ff7565b61221b9190612e45565b6010861115806122715750835b15612282578161221b600283612ff7565b6000600460009054906101000a90046001600160a01b03166001600160a01b0316633dfb353b6040518163ffffffff1660e01b815260040160206040518083038186803b1580156122d257600080fd5b505afa1580156122e6573d6000803e3d6000fd5b505050506040513d601f19601f8201168201806040525081019061230a9190612acb565b6001600160a01b031663eb6c7e626040518163ffffffff1660e01b815260040160006040518083038186803b15801561234257600080fd5b505afa158015612356573d6000803e3d6000fd5b505050506040513d6000823e601f3d908101601f1916820160405261237e9190810190613615565b90506000818251846123909190612ff7565b815181106123a0576123a0612e18565b60200260200101519050809450505050509392505050565b6000602082840312156123ca57600080fd5b81356001600160e01b031981168114611cf057600080fd5b6001600160a01b038116811461144157600080fd5b60006020828403121561240957600080fd5b8135611cf0816123e2565b634e487b7160e01b600052604160045260246000fd5b606081018181106001600160401b038211171561244957612449612414565b60405250565b608081018181106001600160401b038211171561244957612449612414565b601f8201601f191681016001600160401b038111828210171561249357612493612414565b6040525050565b60405160c081016001600160401b03811182821017156124bc576124bc612414565b60405290565b60006001600160401b038211156124db576124db612414565b50601f01601f191660200190565b600082601f8301126124fa57600080fd5b8135612505816124c2565b604051612512828261246e565b82815285602084870101111561252757600080fd5b82602086016020830137600092810160200192909252509392505050565b6000806040838503121561255857600080fd5b8235915060208301356001600160401b0381111561257557600080fd5b612581858286016124e9565b9150509250929050565b60005b838110156125a657818101518382015260200161258e565b838111156125b5576000848401525b50505050565b600081518084526125d381602086016020860161258b565b601f01601f19169290920160200192915050565b602081526000611cf060208301846125bb565b60006001600160401b0382111561261357612613612414565b5060051b60200190565b600082601f83011261262e57600080fd5b8135602061263b826125fa565b60408051612649838261246e565b8481526060948502870184019484820193508886111561266857600080fd5b8488015b868110156126b05781818b0312156126845760008081fd5b835161268f8161242a565b8135815286820135878201528482013585820152855293850193810161266c565b509098975050505050505050565b6000602082840312156126d057600080fd5b81356001600160401b038111156126e657600080fd5b6117f48482850161261d565b60ff8116811461144157600080fd5b8035610ac7816126f2565b6000806040838503121561271f57600080fd5b82356001600160401b038082111561273657600080fd5b9084019060c0828703121561274a57600080fd5b61275261249a565b823581526020830135602082015260408301358281111561277257600080fd5b61277e888286016124e9565b60408301525060608301358281111561279657600080fd5b6127a28882860161261d565b6060830152506127b460808401612701565b60808201526127c560a08401612701565b60a0820152935060208501359150808211156127e057600080fd5b50612581858286016124e9565b801515811461144157600080fd5b6000806040838503121561280e57600080fd5b823591506020830135612820816127ed565b809150509250929050565b600081518084526020808501945080840160005b83811015612871578151805188528381015184890152604090810151908801526060909601959082019060010161283f565b509495945050505050565b6020815281516020820152602082015160408201526000604083015160c060608401526128ac60e08401826125bb565b90506060840151601f198483030160808501526128c9828261282b565b91505060ff60808501511660a084015260ff60a08501511660c08401528091505092915050565b60008060006040848603121561290557600080fd5b83356001600160401b038082111561291c57600080fd5b6129288783880161261d565b9450602086013591508082111561293e57600080fd5b818601915086601f83011261295257600080fd5b81358181111561296157600080fd5b8760208260051b850101111561297657600080fd5b6020830194508093505050509250925092565b602081526000611cf0602083018461282b565b634e487b7160e01b600052602160045260246000fd5b60208101600483106129d457634e487b7160e01b600052602160045260246000fd5b91905290565b60006020808301818452808551808352604092508286019150828160051b87010184880160005b838110156126b057603f1989840301855281516080815185528882015189860152878201518189870152612a37828701826125bb565b91505060608083015192508582038187015250612a5481836125bb565b968901969450505090860190600101612a01565b60208082526014908201527314185d5cd8589b194e881b9bdd081c185d5cd95960621b604082015260600190565b6020808252818101527f4f776e61626c653a2063616c6c6572206973206e6f7420746865206f776e6572604082015260600190565b600060208284031215612add57600080fd5b8151611cf0816123e2565b600082601f830112612af957600080fd5b8151612b04816124c2565b604051612b11828261246e565b828152856020848701011115612b2657600080fd5b612b3783602083016020880161258b565b95945050505050565b600082601f830112612b5157600080fd5b81516020612b5e826125fa565b60408051612b6c838261246e565b84815260609485028701840194848201935088861115612b8b57600080fd5b8488015b868110156126b05781818b031215612ba75760008081fd5b8351612bb28161242a565b81518152868201518782015284820151858201528552938501938101612b8f565b8051610ac7816126f2565b600060208284031215612bf057600080fd5b81516001600160401b0380821115612c0757600080fd5b9083019060c08286031215612c1b57600080fd5b612c2361249a565b8251815260208301516020820152604083015182811115612c4357600080fd5b612c4f87828601612ae8565b604083015250606083015182811115612c6757600080fd5b612c7387828601612b40565b606083015250612c8560808401612bd3565b6080820152612c9660a08401612bd3565b60a082015295945050505050565b6f03d913730b6b2911d1128bab2b2b722960851b81528551600090612cd0816010850160208b0161258b565b71111610113232b9b1b934b83a34b7b7111d1160711b6010918401918201528651612d02816022840160208b0161258b565b6b11161134b6b0b3b2911d101160a11b602292909101918201528551612d2f81602e840160208a0161258b565b8551910190612d4581602e84016020890161258b565b61088b60f21b602e92909101918201528351612d6881603084016020880161258b565b607d60f81b60309290910191820152603101979650505050505050565b7f646174613a6170706c69636174696f6e2f6a736f6e3b6261736536342c000000815260008251612dbd81601d85016020870161258b565b91909101601d0192915050565b600060208284031215612ddc57600080fd5b8151611cf0816127ed565b634e487b7160e01b600052601160045260246000fd5b6000600019821415612e1157612e11612de7565b5060010190565b634e487b7160e01b600052603260045260246000fd5b600082821015612e4057612e40612de7565b500390565b60008219821115612e5857612e58612de7565b500190565b6020808252600c908201526b139bdd0810dbdb9d1c9858dd60a21b604082015260600190565b600060608284031215612e9557600080fd5b604051612ea18161242a565b8091508251815260208301516001600160401b03811115612ec157600080fd5b612ecd85828601612ae8565b6020830152506040830151612ee1816126f2565b6040919091015292915050565b60006020808385031215612f0157600080fd5b82516001600160401b0380821115612f1857600080fd5b818501915085601f830112612f2c57600080fd5b8151612f37816125fa565b604051612f44828261246e565b82815260059290921b8401850191858101915088831115612f6457600080fd5b8585015b83811015612f9c57805185811115612f805760008081fd5b612f8e8b89838a0101612e83565b845250918601918601612f68565b5098975050505050505050565b6000816000190483118215151615612fc357612fc3612de7565b500290565b600060208284031215612fda57600080fd5b5051919050565b634e487b7160e01b600052601260045260246000fd5b60008261300657613006612fe1565b500690565b60006020828403121561301d57600080fd5b81516001600160401b038082111561303457600080fd5b908301906080828603121561304857600080fd5b6040516130548161244f565b825181526020830151602082015260408301518281111561307457600080fd5b61308087828601612ae8565b60408301525060608301518281111561309857600080fd5b6130a487828601612ae8565b60608301525095945050505050565b600060033d11156130cc5760046000803e5060005160e01c5b90565b600060443d10156130dd5790565b6040516003193d81016004833e81513d6001600160401b03816024840111818411171561310c57505050505090565b82850191508151818111156131245750505050505090565b843d870101602082850101111561313e5750505050505090565b61314d6020828601018761246e565b509095945050505050565b60008261316757613167612fe1565b500490565b60006020828403121561317e57600080fd5b81516001600160401b0381111561319457600080fd5b6117f484828501612ae8565b600083516131b281846020880161258b565b700103837b93a3930b4ba1037b31027bab91607d1b90830190815283516131e081601184016020880161258b565b6620517565656e4560c81b60119290910191820152601801949350505050565b6000825161321281846020870161258b565b70163d90113a3930b4ba2fba3cb832911d1160791b920191825250601101919050565b6000825161324781846020870161258b565b6f3d90113a3930b4ba2fba3cb832911d1160811b920191825250601001919050565b60006020828403121561327b57600080fd5b81516001600160401b0381111561329157600080fd5b6117f484828501612e83565b600083516132af81846020880161258b565b8351908301906132c381836020880161258b565b01949350505050565b600082516132de81846020870161258b565b6c111610113b30b63ab2911d101160991b920191825250600d01919050565b6000825161330f81846020870161258b565b61227d60f01b920191825250600201919050565b6000825161333581846020870161258b565b6000805160206136b18339815191529201918252506876616c7565223a317d60b81b6020820152602901919050565b6000825161337681846020870161258b565b6000805160206136b18339815191529201918252506876616c7565223a327d60b81b6020820152602901919050565b600082516133b781846020870161258b565b6000805160206136b18339815191529201918252506876616c7565223a337d60b81b6020820152602901919050565b600082516133f881846020870161258b565b6000805160206136b18339815191529201918252506876616c7565223a347d60b81b6020820152602901919050565b6000825161343981846020870161258b565b7f2c207b2274726169745f74797065223a22536972204177617264222c2276616c920191825250697565223a22596573227d60b01b6020820152602a01919050565b6000825161348d81846020870161258b565b7f2c207b2274726169745f74797065223a22517565656e4500000000000000000092019182525061277360f01b60178201527f2047616c6c657279222c2276616c7565223a22596573227d00000000000000006019820152603101919050565b600082516134ff81846020870161258b565b605d60f81b920191825250600101919050565b6000602080838503121561352557600080fd5b82516001600160401b038082111561353c57600080fd5b818501915085601f83011261355057600080fd5b815161355b816125fa565b60408051613569838261246e565b83815260059390931b850186019286810192508984111561358957600080fd5b8686015b84811015613607578051868111156135a55760008081fd5b87016060818d03601f19018113156135bd5760008081fd5b84516135c88161242a565b8a830151815285830151898111156135e05760008081fd5b6135ee8f8d83870101612ae8565b828d01525091015184820152845292870192870161358d565b509998505050505050505050565b6000602080838503121561362857600080fd5b82516001600160401b0381111561363e57600080fd5b8301601f8101851361364f57600080fd5b805161365a816125fa565b604051613667828261246e565b82815260059290921b830184019184810191508783111561368757600080fd5b928401925b828410156136a55783518252928401929084019061368c565b97965050505050505056fe2c207b2274726169745f74797065223a22526172697479204c6576656c222c224142434445464748494a4b4c4d4e4f505152535455565758595a6162636465666768696a6b6c6d6e6f707172737475767778797a303132333435363738392b2fa2646970667358221220caf0e0b40aa1e0d6c566a3619e291c51879a4080c3d134a12ea66ed29c4904f564736f6c63430008090033"
}