{
  "address": "0x36b58F5C1969B7b6591D752ea6F5486D069010AB",
  "abi": [
    {
      "inputs": [
        {
          "internalType": "contract IQueenPalace",
          "name": "_queenPalace",
          "type": "address"
        },
        {
          "internalType": "bytes[]",
          "name": "commonDescriptions",
          "type": "bytes[]"
        },
        {
          "internalType": "bytes[]",
          "name": "rareDescriptions",
          "type": "bytes[]"
        },
        {
          "internalType": "bytes[]",
          "name": "superRareDescriptions",
          "type": "bytes[]"
        }
      ],
      "stateMutability": "nonpayable",
      "type": "constructor"
    },
    {
      "anonymous": false,
      "inputs": [
        {
          "indexed": false,
          "internalType": "uint256",
          "name": "traitId",
          "type": "uint256"
        },
        {
          "indexed": false,
          "internalType": "uint256",
          "name": "rarityId",
          "type": "uint256"
        },
        {
          "indexed": false,
          "internalType": "bytes",
          "name": "artName",
          "type": "bytes"
        },
        {
          "indexed": false,
          "internalType": "bytes",
          "name": "artUri",
          "type": "bytes"
        }
      ],
      "name": "ArtCreated",
      "type": "event"
    },
    {
      "anonymous": false,
      "inputs": [
        {
          "indexed": false,
          "internalType": "uint256",
          "name": "traitId",
          "type": "uint256"
        },
        {
          "indexed": false,
          "internalType": "uint256",
          "name": "rarityId",
          "type": "uint256"
        },
        {
          "indexed": false,
          "internalType": "bytes",
          "name": "artUri",
          "type": "bytes"
        }
      ],
      "name": "ArtRemoved",
      "type": "event"
    },
    {
      "anonymous": false,
      "inputs": [
        {
          "indexed": true,
          "internalType": "address",
          "name": "previousOwner",
          "type": "address"
        },
        {
          "indexed": true,
          "internalType": "address",
          "name": "newOwner",
          "type": "address"
        }
      ],
      "name": "OwnershipTransferred",
      "type": "event"
    },
    {
      "anonymous": false,
      "inputs": [
        {
          "indexed": false,
          "internalType": "address",
          "name": "account",
          "type": "address"
        }
      ],
      "name": "Paused",
      "type": "event"
    },
    {
      "anonymous": false,
      "inputs": [
        {
          "indexed": true,
          "internalType": "uint256",
          "name": "rarityId",
          "type": "uint256"
        },
        {
          "indexed": false,
          "internalType": "string",
          "name": "rarityName",
          "type": "string"
        },
        {
          "indexed": false,
          "internalType": "uint256",
          "name": "_percentage",
          "type": "uint256"
        }
      ],
      "name": "RarityCreated",
      "type": "event"
    },
    {
      "anonymous": false,
      "inputs": [
        {
          "indexed": true,
          "internalType": "uint256",
          "name": "rarityId",
          "type": "uint256"
        },
        {
          "indexed": false,
          "internalType": "string",
          "name": "rarityName",
          "type": "string"
        },
        {
          "indexed": false,
          "internalType": "uint256",
          "name": "_percentage",
          "type": "uint256"
        }
      ],
      "name": "RarityUpdated",
      "type": "event"
    },
    {
      "anonymous": false,
      "inputs": [
        {
          "indexed": true,
          "internalType": "uint256",
          "name": "traitId",
          "type": "uint256"
        },
        {
          "indexed": false,
          "internalType": "string",
          "name": "_traitName",
          "type": "string"
        },
        {
          "indexed": false,
          "internalType": "uint8",
          "name": "_enabled",
          "type": "uint8"
        }
      ],
      "name": "TraitCreated",
      "type": "event"
    },
    {
      "anonymous": false,
      "inputs": [
        {
          "indexed": true,
          "internalType": "uint256",
          "name": "traitId",
          "type": "uint256"
        },
        {
          "indexed": false,
          "internalType": "string",
          "name": "_traitName",
          "type": "string"
        }
      ],
      "name": "TraitDisabled",
      "type": "event"
    },
    {
      "anonymous": false,
      "inputs": [
        {
          "indexed": true,
          "internalType": "uint256",
          "name": "traitId",
          "type": "uint256"
        },
        {
          "indexed": false,
          "internalType": "string",
          "name": "_traitName",
          "type": "string"
        }
      ],
      "name": "TraitEnabled",
      "type": "event"
    },
    {
      "anonymous": false,
      "inputs": [
        {
          "indexed": false,
          "internalType": "address",
          "name": "account",
          "type": "address"
        }
      ],
      "name": "Unpaused",
      "type": "event"
    },
    {
      "inputs": [
        {
          "internalType": "uint256",
          "name": "_traitId",
          "type": "uint256"
        },
        {
          "internalType": "uint256",
          "name": "_rarityId",
          "type": "uint256"
        },
        {
          "internalType": "uint256",
          "name": "_artIdx",
          "type": "uint256"
        }
      ],
      "name": "getArt",
      "outputs": [
        {
          "components": [
            {
              "internalType": "uint256",
              "name": "traitId",
              "type": "uint256"
            },
            {
              "internalType": "uint256",
              "name": "rarityId",
              "type": "uint256"
            },
            {
              "internalType": "bytes",
              "name": "artName",
              "type": "bytes"
            },
            {
              "internalType": "bytes",
              "name": "uri",
              "type": "bytes"
            }
          ],
          "internalType": "struct RoyalLibrary.sART",
          "name": "art",
          "type": "tuple"
        }
      ],
      "stateMutability": "view",
      "type": "function"
    },
    {
      "inputs": [
        {
          "internalType": "uint256",
          "name": "_traitId",
          "type": "uint256"
        },
        {
          "internalType": "uint256",
          "name": "_rarityId",
          "type": "uint256"
        },
        {
          "internalType": "bytes",
          "name": "_artUri",
          "type": "bytes"
        }
      ],
      "name": "getArtByUri",
      "outputs": [
        {
          "components": [
            {
              "internalType": "uint256",
              "name": "traitId",
              "type": "uint256"
            },
            {
              "internalType": "uint256",
              "name": "rarityId",
              "type": "uint256"
            },
            {
              "internalType": "bytes",
              "name": "artName",
              "type": "bytes"
            },
            {
              "internalType": "bytes",
              "name": "uri",
              "type": "bytes"
            }
          ],
          "internalType": "struct RoyalLibrary.sART",
          "name": "art",
          "type": "tuple"
        }
      ],
      "stateMutability": "view",
      "type": "function"
    },
    {
      "inputs": [
        {
          "internalType": "uint256",
          "name": "_traitId",
          "type": "uint256"
        },
        {
          "internalType": "uint256",
          "name": "_rarityId",
          "type": "uint256"
        }
      ],
      "name": "getArtCount",
      "outputs": [
        {
          "internalType": "uint256",
          "name": "",
          "type": "uint256"
        }
      ],
      "stateMutability": "view",
      "type": "function"
    },
    {
      "inputs": [
        {
          "internalType": "uint256",
          "name": "_traitId",
          "type": "uint256"
        },
        {
          "internalType": "uint256",
          "name": "_rarityId",
          "type": "uint256"
        }
      ],
      "name": "getArts",
      "outputs": [
        {
          "components": [
            {
              "internalType": "uint256",
              "name": "traitId",
              "type": "uint256"
            },
            {
              "internalType": "uint256",
              "name": "rarityId",
              "type": "uint256"
            },
            {
              "internalType": "bytes",
              "name": "artName",
              "type": "bytes"
            },
            {
              "internalType": "bytes",
              "name": "uri",
              "type": "bytes"
            }
          ],
          "internalType": "struct RoyalLibrary.sART[]",
          "name": "artsList",
          "type": "tuple[]"
        }
      ],
      "stateMutability": "view",
      "type": "function"
    },
    {
      "inputs": [
        {
          "internalType": "uint256",
          "name": "_rarityId",
          "type": "uint256"
        },
        {
          "internalType": "uint256",
          "name": "_index",
          "type": "uint256"
        }
      ],
      "name": "getDescriptionByIdx",
      "outputs": [
        {
          "internalType": "bytes",
          "name": "description",
          "type": "bytes"
        }
      ],
      "stateMutability": "view",
      "type": "function"
    },
    {
      "inputs": [
        {
          "internalType": "uint256",
          "name": "_rarityId",
          "type": "uint256"
        }
      ],
      "name": "getDescriptionsCount",
      "outputs": [
        {
          "internalType": "uint256",
          "name": "",
          "type": "uint256"
        }
      ],
      "stateMutability": "view",
      "type": "function"
    },
    {
      "inputs": [
        {
          "internalType": "bool",
          "name": "_onlyWithArt",
          "type": "bool"
        },
        {
          "internalType": "uint256",
          "name": "_traitId",
          "type": "uint256"
        }
      ],
      "name": "getRarities",
      "outputs": [
        {
          "components": [
            {
              "internalType": "uint256",
              "name": "id",
              "type": "uint256"
            },
            {
              "internalType": "string",
              "name": "rarityName",
              "type": "string"
            },
            {
              "internalType": "uint256",
              "name": "percentage",
              "type": "uint256"
            }
          ],
          "internalType": "struct RoyalLibrary.sRARITY[]",
          "name": "raritiesList",
          "type": "tuple[]"
        }
      ],
      "stateMutability": "view",
      "type": "function"
    },
    {
      "inputs": [
        {
          "internalType": "uint256",
          "name": "_rarityId",
          "type": "uint256"
        }
      ],
      "name": "getRarityById",
      "outputs": [
        {
          "components": [
            {
              "internalType": "uint256",
              "name": "id",
              "type": "uint256"
            },
            {
              "internalType": "string",
              "name": "rarityName",
              "type": "string"
            },
            {
              "internalType": "uint256",
              "name": "percentage",
              "type": "uint256"
            }
          ],
          "internalType": "struct RoyalLibrary.sRARITY",
          "name": "rarity",
          "type": "tuple"
        }
      ],
      "stateMutability": "view",
      "type": "function"
    },
    {
      "inputs": [
        {
          "internalType": "string",
          "name": "_rarityName",
          "type": "string"
        }
      ],
      "name": "getRarityByName",
      "outputs": [
        {
          "components": [
            {
              "internalType": "uint256",
              "name": "id",
              "type": "uint256"
            },
            {
              "internalType": "string",
              "name": "rarityName",
              "type": "string"
            },
            {
              "internalType": "uint256",
              "name": "percentage",
              "type": "uint256"
            }
          ],
          "internalType": "struct RoyalLibrary.sRARITY",
          "name": "rarity",
          "type": "tuple"
        }
      ],
      "stateMutability": "view",
      "type": "function"
    },
    {
      "inputs": [
        {
          "internalType": "uint256",
          "name": "_id",
          "type": "uint256"
        }
      ],
      "name": "getTrait",
      "outputs": [
        {
          "components": [
            {
              "internalType": "uint256",
              "name": "id",
              "type": "uint256"
            },
            {
              "internalType": "string",
              "name": "traitName",
              "type": "string"
            },
            {
              "internalType": "uint8",
              "name": "enabled",
              "type": "uint8"
            }
          ],
          "internalType": "struct RoyalLibrary.sTRAIT",
          "name": "trait",
          "type": "tuple"
        }
      ],
      "stateMutability": "view",
      "type": "function"
    },
    {
      "inputs": [
        {
          "internalType": "string",
          "name": "_traitName",
          "type": "string"
        }
      ],
      "name": "getTraitByName",
      "outputs": [
        {
          "components": [
            {
              "internalType": "uint256",
              "name": "id",
              "type": "uint256"
            },
            {
              "internalType": "string",
              "name": "traitName",
              "type": "string"
            },
            {
              "internalType": "uint8",
              "name": "enabled",
              "type": "uint8"
            }
          ],
          "internalType": "struct RoyalLibrary.sTRAIT",
          "name": "trait",
          "type": "tuple"
        }
      ],
      "stateMutability": "view",
      "type": "function"
    },
    {
      "inputs": [
        {
          "internalType": "bool",
          "name": "_onlyEnabled",
          "type": "bool"
        }
      ],
      "name": "getTraits",
      "outputs": [
        {
          "components": [
            {
              "internalType": "uint256",
              "name": "id",
              "type": "uint256"
            },
            {
              "internalType": "string",
              "name": "traitName",
              "type": "string"
            },
            {
              "internalType": "uint8",
              "name": "enabled",
              "type": "uint8"
            }
          ],
          "internalType": "struct RoyalLibrary.sTRAIT[]",
          "name": "_traits",
          "type": "tuple[]"
        }
      ],
      "stateMutability": "view",
      "type": "function"
    },
    {
      "inputs": [
        {
          "internalType": "address",
          "name": "_address",
          "type": "address"
        }
      ],
      "name": "isOwner",
      "outputs": [
        {
          "internalType": "bool",
          "name": "",
          "type": "bool"
        }
      ],
      "stateMutability": "view",
      "type": "function"
    },
    {
      "inputs": [],
      "name": "owner",
      "outputs": [
        {
          "internalType": "address",
          "name": "",
          "type": "address"
        }
      ],
      "stateMutability": "view",
      "type": "function"
    },
    {
      "inputs": [],
      "name": "pause",
      "outputs": [],
      "stateMutability": "nonpayable",
      "type": "function"
    },
    {
      "inputs": [],
      "name": "paused",
      "outputs": [
        {
          "internalType": "bool",
          "name": "",
          "type": "bool"
        }
      ],
      "stateMutability": "view",
      "type": "function"
    },
    {
      "inputs": [],
      "name": "rarityPool",
      "outputs": [
        {
          "internalType": "uint256[]",
          "name": "",
          "type": "uint256[]"
        }
      ],
      "stateMutability": "view",
      "type": "function"
    },
    {
      "inputs": [
        {
          "internalType": "uint256",
          "name": "_traitId",
          "type": "uint256"
        },
        {
          "internalType": "uint256",
          "name": "_rarityId",
          "type": "uint256"
        },
        {
          "internalType": "bytes",
          "name": "_artUri",
          "type": "bytes"
        }
      ],
      "name": "removeArt",
      "outputs": [
        {
          "internalType": "bool",
          "name": "result",
          "type": "bool"
        }
      ],
      "stateMutability": "nonpayable",
      "type": "function"
    },
    {
      "inputs": [],
      "name": "renounceOwnership",
      "outputs": [],
      "stateMutability": "nonpayable",
      "type": "function"
    },
    {
      "inputs": [
        {
          "components": [
            {
              "internalType": "uint256",
              "name": "traitId",
              "type": "uint256"
            },
            {
              "internalType": "uint256",
              "name": "rarityId",
              "type": "uint256"
            },
            {
              "internalType": "bytes",
              "name": "artName",
              "type": "bytes"
            },
            {
              "internalType": "bytes",
              "name": "uri",
              "type": "bytes"
            }
          ],
          "internalType": "struct RoyalLibrary.sART[]",
          "name": "_artUri",
          "type": "tuple[]"
        }
      ],
      "name": "setArt",
      "outputs": [],
      "stateMutability": "nonpayable",
      "type": "function"
    },
    {
      "inputs": [
        {
          "internalType": "uint256",
          "name": "_rarityId",
          "type": "uint256"
        },
        {
          "internalType": "bytes",
          "name": "_description",
          "type": "bytes"
        }
      ],
      "name": "setDescription",
      "outputs": [],
      "stateMutability": "nonpayable",
      "type": "function"
    },
    {
      "inputs": [
        {
          "internalType": "contract IQueenPalace",
          "name": "_queenPalace",
          "type": "address"
        }
      ],
      "name": "setQueenPalace",
      "outputs": [],
      "stateMutability": "nonpayable",
      "type": "function"
    },
    {
      "inputs": [
        {
          "internalType": "string",
          "name": "_rarityName",
          "type": "string"
        },
        {
          "internalType": "uint256",
          "name": "_percentage",
          "type": "uint256"
        }
      ],
      "name": "setRarity",
      "outputs": [
        {
          "components": [
            {
              "internalType": "uint256",
              "name": "id",
              "type": "uint256"
            },
            {
              "internalType": "string",
              "name": "rarityName",
              "type": "string"
            },
            {
              "internalType": "uint256",
              "name": "percentage",
              "type": "uint256"
            }
          ],
          "internalType": "struct RoyalLibrary.sRARITY",
          "name": "rarity",
          "type": "tuple"
        }
      ],
      "stateMutability": "nonpayable",
      "type": "function"
    },
    {
      "inputs": [
        {
          "internalType": "string",
          "name": "_traitName",
          "type": "string"
        },
        {
          "internalType": "uint8",
          "name": "_enabled",
          "type": "uint8"
        }
      ],
      "name": "setTrait",
      "outputs": [],
      "stateMutability": "nonpayable",
      "type": "function"
    },
    {
      "inputs": [
        {
          "internalType": "bytes4",
          "name": "interfaceId",
          "type": "bytes4"
        }
      ],
      "name": "supportsInterface",
      "outputs": [
        {
          "internalType": "bool",
          "name": "",
          "type": "bool"
        }
      ],
      "stateMutability": "view",
      "type": "function"
    },
    {
      "inputs": [
        {
          "internalType": "address",
          "name": "newOwner",
          "type": "address"
        }
      ],
      "name": "transferOwnership",
      "outputs": [],
      "stateMutability": "nonpayable",
      "type": "function"
    },
    {
      "inputs": [],
      "name": "unpause",
      "outputs": [],
      "stateMutability": "nonpayable",
      "type": "function"
    },
    {
      "inputs": [
        {
          "internalType": "uint256",
          "name": "_rarityId",
          "type": "uint256"
        },
        {
          "internalType": "uint256",
          "name": "_newPercentage",
          "type": "uint256"
        },
        {
          "internalType": "string",
          "name": "_rarityNewName",
          "type": "string"
        }
      ],
      "name": "updateRarity",
      "outputs": [
        {
          "components": [
            {
              "internalType": "uint256",
              "name": "id",
              "type": "uint256"
            },
            {
              "internalType": "string",
              "name": "rarityName",
              "type": "string"
            },
            {
              "internalType": "uint256",
              "name": "percentage",
              "type": "uint256"
            }
          ],
          "internalType": "struct RoyalLibrary.sRARITY",
          "name": "rarity",
          "type": "tuple"
        }
      ],
      "stateMutability": "nonpayable",
      "type": "function"
    }
  ],
  "numDeployments": 51,
  "bytecode": "0x60806040523480156200001157600080fd5b506040516200573838038062005738833981016040819052620000349162000c85565b6001805460ff191681556002556200004c3362000717565b6200005e634bba560b60e01b62000769565b600480546001600160a01b0319166001600160a01b03861617905560408051606081018252600180825282518084018452600a815269109050d2d1d493d5539160b21b6020808301919091528084019182529383018290526005805492830181556000528251600080516020620056d8833981519152600390930292830190815590518051939491936200010993600080516020620056b88339815191520192919091019062000970565b506040918201516002918201805460ff90921660ff1990921691909117905581516060810183529081528151808301835260048152634641434560e01b602082810191909152808301918252600193830184905260058054948501815560005282516003909402600080516020620056d8833981519152810194855591518051939493620001ae93600080516020620056b88339815191520192919091019062000970565b50604091820151600291909101805460ff191660ff9092169190911790558051606081018252600380825282518084018452600681526513d55511925560d21b60208083019190915280840191825260019484018590526005805495860181556000528351600080516020620056d88339815191529590930294850192835590518051939492936200025793600080516020620056b88339815191520192919091019062000970565b506040918201516002909101805460ff90921660ff199092169190911790558051606081018252600480825282518084018452908152631211505160e21b602082810191909152808301918252600193830184905260058054948501815560005282516003909402600080516020620056d8833981519152810194855591518051939493620002fd93600080516020620056b88339815191520192919091019062000970565b506040918201516002909101805460ff90921660ff19909216919091179055805160608101825260058082528251808401845260078152664a4557454c525960c81b60208281019190915280840191825260019484018590528254948501835560009290925282516003909402600080516020620056d8833981519152810194855590518051939493620003aa93600080516020620056b883398151915290930192919091019062000970565b506040918201516002909101805460ff90921660ff19909216919091179055805160608101825260068152815180830183526005808252644652414d4560d81b60208381019190915280840192835260019484018590528154948501825560009190915282516003909402600080516020620056d88339815191528101948555915180519394936200045393600080516020620056b88339815191520192919091019062000970565b50604091820151600291909101805460ff191660ff909216919091179055805160608101825260018082528251808401845260068082526521a7a6a6a7a760d11b6020808401919091528085019283526055958501959095528054928301815560005282516000805160206200571883398151915260039093029283019081559051805193949193620004fd93600080516020620056f88339815191520192919091019062000970565b5060409182015160029182015581516060810183529081528151808301835260048152635241524560e01b602082810191909152808301918252600a93830193909352600680546001810182556000919091528251600390910260008051602062005718833981519152810191825591518051939491936200059693600080516020620056f88339815191520192919091019062000970565b506040918201516002909101558051606081018252600380825282518084018452600a81526953555045522d5241524560b01b602082810191909152808401918252600594840194909452600680546001810182556000919091528351920260008051602062005718833981519152810192835590518051939492936200063693600080516020620056f883398151915290930192919091019062000970565b50604091909101516002909101556200064e620007ed565b600080526008602090815283516200068c917f5eff886ea0ce6ca488a3d6e336d6c0f75f46d19b42c06ce5ee98e42c96d256c79190860190620009ff565b506001600052600860209081528251620006cc917fad67d757c34507f157cacfa2e3153e9f260a2244f30428821be7be64587ac55f9190850190620009ff565b5060026000526008602090815281516200070c917f6add646517a5b0f6793cd5891b7937d28a5b2981a5d88ebc7cd776088fea90419190840190620009ff565b505050505062000df3565b600380546001600160a01b038381166001600160a01b0319831681179093556040519116919082907f8be0079c531659141344cd1fd0a4f28419497f9722a3daafe3b4186f6b6457e090600090a35050565b6001600160e01b03198082161415620007c85760405162461bcd60e51b815260206004820152601c60248201527f4552433136353a20696e76616c696420696e7465726661636520696400000000604482015260640160405180910390fd5b6001600160e01b0319166000908152602081905260409020805460ff19166001179055565b604080516064808252610ca082019092529060208201610c8080368337505081516200082192600992506020019062000a5f565b5060008060005b6006548110156200087f576006818154811062000849576200084962000d37565b9060005260206000209060030201600201548262000868919062000d63565b915080620008768162000d7e565b91505062000828565b5060005b6006548110156200096b5760015b8115620008a0576000620008ad565b620008ad83606462000d9c565b60068381548110620008c357620008c362000d37565b906000526020600020906003020160020154620008e1919062000d63565b8111620009555760068281548110620008fe57620008fe62000d37565b906000526020600020906003020160000154600985806200091f9062000d7e565b96508154811062000934576200093462000d37565b600091825260209091200155806200094c8162000d7e565b91505062000891565b5080620009628162000d7e565b91505062000883565b505050565b8280546200097e9062000db6565b90600052602060002090601f016020900481019282620009a25760008555620009ed565b82601f10620009bd57805160ff1916838001178555620009ed565b82800160010185558215620009ed579182015b82811115620009ed578251825591602001919060010190620009d0565b50620009fb92915062000a9c565b5090565b82805482825590600052602060002090810192821562000a51579160200282015b8281111562000a51578251805162000a4091849160209091019062000970565b509160200191906001019062000a20565b50620009fb92915062000ab3565b828054828255906000526020600020908101928215620009ed5791602002820182811115620009ed578251825591602001919060010190620009d0565b5b80821115620009fb576000815560010162000a9d565b80821115620009fb57600062000aca828262000ad4565b5060010162000ab3565b50805462000ae29062000db6565b6000825580601f1062000af3575050565b601f01602090049060005260206000209081019062000b13919062000a9c565b50565b634e487b7160e01b600052604160045260246000fd5b604051601f8201601f191681016001600160401b038111828210171562000b575762000b5762000b16565b604052919050565b6000601f838184011262000b7257600080fd5b825160206001600160401b038083111562000b915762000b9162000b16565b8260051b62000ba283820162000b2c565b938452868101830193838101908986111562000bbd57600080fd5b84890192505b8583101562000c785782518481111562000bdd5760008081fd5b8901603f81018b1362000bf05760008081fd5b858101518581111562000c075762000c0762000b16565b62000c1a818a01601f1916880162000b2c565b81815260408d8184860101111562000c325760008081fd5b60005b8381101562000c52578481018201518382018b0152890162000c35565b8381111562000c645760008a85850101525b505084525050918401919084019062000bc3565b9998505050505050505050565b6000806000806080858703121562000c9c57600080fd5b84516001600160a01b038116811462000cb457600080fd5b60208601519094506001600160401b038082111562000cd257600080fd5b62000ce08883890162000b5f565b9450604087015191508082111562000cf757600080fd5b62000d058883890162000b5f565b9350606087015191508082111562000d1c57600080fd5b5062000d2b8782880162000b5f565b91505092959194509250565b634e487b7160e01b600052603260045260246000fd5b634e487b7160e01b600052601160045260246000fd5b6000821982111562000d795762000d7962000d4d565b500190565b600060001982141562000d955762000d9562000d4d565b5060010190565b60008282101562000db15762000db162000d4d565b500390565b600181811c9082168062000dcb57607f821691505b6020821081141562000ded57634e487b7160e01b600052602260045260246000fd5b50919050565b6148b58062000e036000396000f3fe608060405234801561001057600080fd5b50600436106101c45760003560e01c8063715018a6116100f9578063acb586df11610097578063be7cbe7511610071578063be7cbe75146103f0578063d764252814610403578063eb6c7e6214610416578063f2fde38b1461042b57600080fd5b8063acb586df146103aa578063b5262333146103ca578063bd3a261b146103dd57600080fd5b80638456cb59116100d35780638456cb59146103545780638d6ac2131461035c5780638da5cb5b1461037c5780638ed011201461039757600080fd5b8063715018a6146103265780637c67fc3b1461032e57806380e416bd1461034157600080fd5b8063395062ce1161016657806354fcc4321161014057806354fcc432146102d55780635c975abb146102e857806364d862b2146102f35780636d08cff11461030657600080fd5b8063395062ce146102a55780633f4ba83a146102ba57806345514183146102c257600080fd5b806316b53abe116101a257806316b53abe1461023257806325e61a12146102525780632d22ebf8146102725780632f54bf6e1461029257600080fd5b806301ffc9a7146101c95780630f4d962b146101f15780631548d9e614610211575b600080fd5b6101dc6101d7366004613de5565b61043e565b60405190151581526020015b60405180910390f35b6102046101ff366004613e0f565b61047e565b6040516101e89190613ede565b61022461021f366004613ef1565b61069f565b6040519081526020016101e8565b610245610240366004613ef1565b610745565b6040516101e89190613f13565b610265610260366004614055565b6108f1565b6040516101e891906140d8565b610285610280366004613ef1565b610d6a565b6040516101e891906140eb565b6101dc6102a0366004614113565b610e6b565b6102b86102b3366004614113565b610e99565b005b6102b8610f44565b6102246102d0366004614130565b610f9a565b6102046102e3366004614055565b610fe8565b60015460ff166101dc565b6102b8610301366004614149565b611291565b61031961031436600461419e565b611480565b6040516101e891906141ca565b6102b8611862565b6102b861033c36600461421f565b611896565b61026561034f366004614351565b611ce2565b6102b8611eb8565b61036f61036a366004614396565b611f0d565b6040516101e891906143e9565b6003546040516001600160a01b0390911681526020016101e8565b6102b86103a536600461443e565b612262565b6103bd6103b8366004614130565b61250c565b6040516101e89190614496565b6102656103d83660046144a9565b612662565b6101dc6103eb366004614055565b612822565b6102656103fe366004614130565b612b68565b6103bd6104113660046144a9565b612bea565b61041e612cba565b6040516101e891906144e6565b6102b8610439366004614113565b612d12565b60006301ffc9a760e01b6001600160e01b03198316148061047857506001600160e01b0319821660009081526020819052604090205460ff165b92915050565b6104a96040518060800160405280600081526020016000815260200160608152602001606081525090565b6104b4826001614540565b600085815260076020908152604080832087845290915290205410156105195760405162461bcd60e51b815260206004820152601560248201527409cde4082e4e840c2e840ced2eccadc40d2dcc8caf605b1b60448201526064015b60405180910390fd5b6000848152600760209081526040808320868452909152902080548390811061054457610544614558565b906000526020600020906004020160405180608001604052908160008201548152602001600182015481526020016002820180546105819061456e565b80601f01602080910402602001604051908101604052809291908181526020018280546105ad9061456e565b80156105fa5780601f106105cf576101008083540402835291602001916105fa565b820191906000526020600020905b8154815290600101906020018083116105dd57829003601f168201915b505050505081526020016003820180546106139061456e565b80601f016020809104026020016040519081016040528092919081815260200182805461063f9061456e565b801561068c5780601f106106615761010080835404028352916020019161068c565b820191906000526020600020905b81548152906001019060200180831161066f57829003601f168201915b50505050508152505090505b9392505050565b600081156106c757506000828152600760209081526040808320848452909152902054610478565b6000805b60065481101561073d57600085815260076020526040812060068054919291849081106106fa576106fa614558565b906000526020600020906003020160000154815260200190815260200160002080549050826107299190614540565b915080610735816145a3565b9150506106cb565b509392505050565b60008281526007602090815260408083208484528252808320805482518185028101850190935280835260609492939192909184015b828210156108e5578382906000526020600020906004020160405180608001604052908160008201548152602001600182015481526020016002820180546107c29061456e565b80601f01602080910402602001604051908101604052809291908181526020018280546107ee9061456e565b801561083b5780601f106108105761010080835404028352916020019161083b565b820191906000526020600020905b81548152906001019060200180831161081e57829003601f168201915b505050505081526020016003820180546108549061456e565b80601f01602080910402602001604051908101604052809291908181526020018280546108809061456e565b80156108cd5780601f106108a2576101008083540402835291602001916108cd565b820191906000526020600020905b8154815290600101906020018083116108b057829003601f168201915b5050505050815250508152602001906001019061077b565b50505050905092915050565b61091560405180606001604052806000815260200160608152602001600081525090565b60015460ff16156109385760405162461bcd60e51b8152600401610510906145be565b610940612dad565b610948612f31565b600061095385612b68565b5111610984575060408051606081018252600080825282516020818101855282825283015291810191909152610698565b60408051600081526020810180835281519020916109a4918591016145e8565b604051602081830303815290604052805190602001201415610a7a5760066109cb85613098565b815481106109db576109db614558565b906000526020600020906003020160010180546109f79061456e565b80601f0160208091040260200160405190810160405280929190818152602001828054610a239061456e565b8015610a705780601f10610a4557610100808354040283529160200191610a70565b820191906000526020600020905b815481529060010190602001808311610a5357829003601f168201915b5050505050610a7c565b815b6006610a8786613098565b81548110610a9757610a97614558565b90600052602060002090600302016001019080519060200190610abb929190613c5d565b5060008311610af6576006610acf85613098565b81548110610adf57610adf614558565b906000526020600020906003020160020154610af8565b825b6006610b0386613098565b81548110610b1357610b13614558565b60009182526020822060026003909202010191909155805b600654811015610b795760068181548110610b4857610b48614558565b90600052602060002090600302016002015482610b659190614540565b915080610b71816145a3565b915050610b2b565b506064811115610bc15760405162461bcd60e51b815260206004820152601360248201527250657263656e74616765204f766572666c6f7760681b6044820152606401610510565b610bc96130f3565b6006610bd486613098565b81548110610be457610be4614558565b9060005260206000209060030201600001547f4dd8935ebaffddda858e4654372c428f09b46e92ca85380f0e92f40a2acb85e26006610c2288613098565b81548110610c3257610c32614558565b90600052602060002090600302016001016006610c4e89613098565b81548110610c5e57610c5e614558565b906000526020600020906003020160020154604051610c7e92919061467b565b60405180910390a26006610c9186613098565b81548110610ca157610ca1614558565b906000526020600020906003020160405180606001604052908160008201548152602001600182018054610cd49061456e565b80601f0160208091040260200160405190810160405280929190818152602001828054610d009061456e565b8015610d4d5780601f10610d2257610100808354040283529160200191610d4d565b820191906000526020600020905b815481529060010190602001808311610d3057829003601f168201915b505050505081526020016002820154815250509150509392505050565b606060018311610e2e576000838152600860205260409020805483908110610d9457610d94614558565b906000526020600020018054610da99061456e565b80601f0160208091040260200160405190810160405280929190818152602001828054610dd59061456e565b8015610e225780601f10610df757610100808354040283529160200191610e22565b820191906000526020600020905b815481529060010190602001808311610e0557829003601f168201915b50505050509050610478565b600260005260086020527f6add646517a5b0f6793cd5891b7937d28a5b2981a5d88ebc7cd776088fea9041805483908110610d9457610d94614558565b6000816001600160a01b0316610e896003546001600160a01b031690565b6001600160a01b03161492915050565b600280541415610eeb5760405162461bcd60e51b815260206004820152601f60248201527f5265656e7472616e637947756172643a207265656e7472616e742063616c6c006044820152606401610510565b6002805560015460ff16610f115760405162461bcd60e51b81526004016105109061469d565b610f19613252565b610f21612f31565b600480546001600160a01b0319166001600160a01b038316179055506001600255565b6003546001600160a01b03163314610f6e5760405162461bcd60e51b8152600401610510906146cb565b60015460ff16610f905760405162461bcd60e51b81526004016105109061469d565b610f98613332565b565b600060018211610fb7575060009081526008602052604090205490565b5050600260005260086020527f6add646517a5b0f6793cd5891b7937d28a5b2981a5d88ebc7cd776088fea90415490565b6110136040518060800160405280600081526020016000815260200160608152602001606081525090565b600084815260076020908152604080832086845290915290205415610698576000848152600760209081526040808320868452825280832080548251818502810185019093528083529192909190849084015b828210156111d0578382906000526020600020906004020160405180608001604052908160008201548152602001600182015481526020016002820180546110ad9061456e565b80601f01602080910402602001604051908101604052809291908181526020018280546110d99061456e565b80156111265780601f106110fb57610100808354040283529160200191611126565b820191906000526020600020905b81548152906001019060200180831161110957829003601f168201915b5050505050815260200160038201805461113f9061456e565b80601f016020809104026020016040519081016040528092919081815260200182805461116b9061456e565b80156111b85780601f1061118d576101008083540402835291602001916111b8565b820191906000526020600020905b81548152906001019060200180831161119b57829003601f168201915b50505050508152505081526020019060010190611066565b50505050905060005b815181101561128857836040516020016111f391906145e8565b6040516020818303038152906040528051906020012082828151811061121b5761121b614558565b60200260200101516060015160405160200161123791906145e8565b6040516020818303038152906040528051906020012014156112765781818151811061126557611265614558565b602002602001015192505050610698565b80611280816145a3565b9150506111d9565b50509392505050565b60015460ff16156112b45760405162461bcd60e51b8152600401610510906145be565b6112bc61339e565b6112c4612f31565b6000828152600860205260408120548190156113ea5760008481526008602052604081208054839081106112fa576112fa614558565b90600052602060002001805461130f9061456e565b80601f016020809104026020016040519081016040528092919081815260200182805461133b9061456e565b80156113885780601f1061135d57610100808354040283529160200191611388565b820191906000526020600020905b81548152906001019060200180831161136b57829003601f168201915b50505050509050836040516020016113a091906145e8565b60405160208183030381529060405280519060200120816040516020016113c791906145e8565b6040516020818303038152906040528051906020012014156113e857600192505b505b5080156114485760405162461bcd60e51b815260206004820152602660248201527f517565656e5472616974733a3a44657363727074696f6e20616c72656164792060448201526565786973747360d01b6064820152608401610510565b60008381526008602090815260408220805460018101825590835291819020845161147a939190910191850190613c5d565b50505050565b606082801561148d575081155b156114e9578215806114a757508280156114a75750600082115b6114e95760405162461bcd60e51b8152602060048201526013602482015272496e76616c696420506172616d65746572732160681b6044820152606401610510565b600654831561157257506000805b600654811015611570576000848152600760205260408120600680548391908590811061152657611526614558565b906000526020600020906003020160000154815260200190815260200160002080549050111561155e578161155a816145a3565b9250505b80611568816145a3565b9150506114f7565b505b60008167ffffffffffffffff81111561158d5761158d613f75565b6040519080825280602002602001820160405280156115e257816020015b6115cf60405180606001604052806000815260200160608152602001600081525090565b8152602001906001900390816115ab5790505b5090506000805b600654811015611857578615611749576000868152600760205260408120600680548391908590811061161e5761161e614558565b9060005260206000209060030201600001548152602001908152602001600020805490501115611744576006818154811061165b5761165b614558565b90600052602060002090600302016040518060600160405290816000820154815260200160018201805461168e9061456e565b80601f01602080910402602001604051908101604052809291908181526020018280546116ba9061456e565b80156117075780601f106116dc57610100808354040283529160200191611707565b820191906000526020600020905b8154815290600101906020018083116116ea57829003601f168201915b50505050508152602001600282015481525050838380611726906145a3565b94508151811061173857611738614558565b60200260200101819052505b611845565b6006818154811061175c5761175c614558565b90600052602060002090600302016040518060600160405290816000820154815260200160018201805461178f9061456e565b80601f01602080910402602001604051908101604052809291908181526020018280546117bb9061456e565b80156118085780601f106117dd57610100808354040283529160200191611808565b820191906000526020600020905b8154815290600101906020018083116117eb57829003601f168201915b50505050508152602001600282015481525050838380611827906145a3565b94508151811061183957611839614558565b60200260200101819052505b8061184f816145a3565b9150506115e9565b509095945050505050565b6003546001600160a01b0316331461188c5760405162461bcd60e51b8152600401610510906146cb565b610f98600061350f565b60015460ff16156118b95760405162461bcd60e51b8152600401610510906145be565b6118c1613561565b6118c9612f31565b60008151116119115760405162461bcd60e51b8152602060048201526014602482015273557269206d75737420686176652076616c75652160601b6044820152606401610510565b60005b8151811015611cde57600082828151811061193157611931614558565b6020026020010151600001511161197e5760405162461bcd60e51b8152602060048201526011602482015270547261697420696420696e76616c69642160781b6044820152606401610510565b600082828151811061199257611992614558565b602002602001015160200151116119e05760405162461bcd60e51b815260206004820152601260248201527152617269747920696420696e76616c69642160701b6044820152606401610510565b611a068282815181106119f5576119f5614558565b60200260200101516000015161250c565b6040015160ff16600114611a4e5760405162461bcd60e51b815260206004820152600f60248201526e54726169742064697361626c65642160881b6044820152606401610510565b6000611ab2838381518110611a6557611a65614558565b602002602001015160000151848481518110611a8357611a83614558565b602002602001015160200151858581518110611aa157611aa1614558565b6020026020010151606001516136cb565b5090508015611ac15750611ccc565b60076000848481518110611ad757611ad7614558565b60200260200101516000015181526020019081526020016000206000848481518110611b0557611b05614558565b60200260200101516020015181526020019081526020016000206040518060800160405280858581518110611b3c57611b3c614558565b6020026020010151600001518152602001858581518110611b5f57611b5f614558565b6020026020010151602001518152602001858581518110611b8257611b82614558565b6020026020010151604001518152602001858581518110611ba557611ba5614558565b602090810291909101810151606001519091528254600181810185556000948552938290208351600490920201908155828201519381019390935560408201518051929392611bfa9260028501920190613c5d565b5060608201518051611c16916003840191602090910190613c5d565b5050507f04d50dfd864b400cf0e7f1e7fdeaee25c4633f471f244e716a1db9f13b674ec4838381518110611c4c57611c4c614558565b602002602001015160000151848481518110611c6a57611c6a614558565b602002602001015160200151858581518110611c8857611c88614558565b602002602001015160400151868681518110611ca657611ca6614558565b602002602001015160600151604051611cc29493929190614700565b60405180910390a1505b80611cd6816145a3565b915050611914565b5050565b611d0660405180606001604052806000815260200160608152602001600081525090565b60015460ff1615611d295760405162461bcd60e51b8152600401610510906145be565b611d3161339e565b611d39612f31565b611d4283612662565b5115611d5857611d5183612662565b9050610478565b8160005b600654811015611daa5760068181548110611d7957611d79614558565b90600052602060002090600302016002015482611d969190614540565b915080611da2816145a3565b915050611d5c565b506064811115611df25760405162461bcd60e51b815260206004820152601360248201527250657263656e74616765204f766572666c6f7760681b6044820152606401610510565b600660405180606001604052806006805490506001611e119190614540565b815260208082018890526040909101869052825460018181018555600094855293829020835160039092020190815582820151805193965086949193611e5f93928501929190910190613c5d565b50604082015181600201555050611e746130f3565b6006546040517ff62f1c20b58fe572a9862736c117891d3f44451c8f96fc2cfc0f39f67088314190611ea9908790879061473c565b60405180910390a25092915050565b6003546001600160a01b03163314611ee25760405162461bcd60e51b8152600401610510906146cb565b60015460ff1615611f055760405162461bcd60e51b8152600401610510906145be565b610f9861393e565b60606000805b600554811015611f865783611f345781611f2c816145a3565b925050611f74565b60058181548110611f4757611f47614558565b600091825260209091206002600390920201015460ff1660011415611f745781611f70816145a3565b9250505b80611f7e816145a3565b915050611f13565b5060008167ffffffffffffffff811115611fa257611fa2613f75565b604051908082528060200260200182016040528015611ffa57816020015b611fe760405180606001604052806000815260200160608152602001600060ff1681525090565b815260200190600190039081611fc05790505b5090506000805b6005548110156122585785612114576005818154811061202357612023614558565b9060005260206000209060030201604051806060016040529081600082015481526020016001820180546120569061456e565b80601f01602080910402602001604051908101604052809291908181526020018280546120829061456e565b80156120cf5780601f106120a4576101008083540402835291602001916120cf565b820191906000526020600020905b8154815290600101906020018083116120b257829003601f168201915b50505091835250506002919091015460ff1660209091015283836120f2816145a3565b94508151811061210457612104614558565b6020026020010181905250612246565b6005818154811061212757612127614558565b600091825260209091206002600390920201015460ff1660011415612246576005818154811061215957612159614558565b90600052602060002090600302016040518060600160405290816000820154815260200160018201805461218c9061456e565b80601f01602080910402602001604051908101604052809291908181526020018280546121b89061456e565b80156122055780601f106121da57610100808354040283529160200191612205565b820191906000526020600020905b8154815290600101906020018083116121e857829003601f168201915b50505091835250506002919091015460ff166020909101528383612228816145a3565b94508151811061223a5761223a614558565b60200260200101819052505b80612250816145a3565b915050612001565b5090949350505050565b60015460ff16156122855760405162461bcd60e51b8152600401610510906145be565b61228d613561565b612295612f31565b60018160ff1611156122e15760405162461bcd60e51b8152602060048201526015602482015274115b98589b1959081d985b1d59481a5b9d985b1a59605a1b6044820152606401610510565b60006122ec83612bea565b511115612422578060056122ff84613994565b8154811061230f5761230f614558565b60009182526020909120600390910201600201805460ff191660ff92831617905581166123c957600561234183613994565b8154811061235157612351614558565b9060005260206000209060030201600001547f1ada03de2e8c5382a1d77e8d8e5d6b7a06f2cbe26ab957c39abfa2d699de8ae3600561238f85613994565b8154811061239f5761239f614558565b90600052602060002090600302016001016040516123bd919061474f565b60405180910390a25050565b60056123d483613994565b815481106123e4576123e4614558565b9060005260206000209060030201600001547f86ca0d8c3019f739f3eb47175a1ad40fea4fd350af552e5c4af8d65ffab6335c600561238f85613994565b6040805160608101825260058054808352602080840187815260ff871695850195909552600182018355600092909252825160039091027f036b6384b5eca791c62761152d0c79bb0604c104a5fb6f4eb0703f3154bb3db0810191825593518051939491936124ba937f036b6384b5eca791c62761152d0c79bb0604c104a5fb6f4eb0703f3154bb3db1909301929190910190613c5d565b50604091820151600291909101805460ff191660ff90921691909117905560055490517f124204eeb57540d14b66c46a7110ad70fc73fe7b4d3754cef39fd89710ed3228906123bd9085908590614762565b61253360405180606001604052806000815260200160608152602001600060ff1681525090565b60005b60055481101561265c57826005828154811061255457612554614558565b906000526020600020906003020160000154141561264a576005818154811061257f5761257f614558565b9060005260206000209060030201604051806060016040529081600082015481526020016001820180546125b29061456e565b80601f01602080910402602001604051908101604052809291908181526020018280546125de9061456e565b801561262b5780601f106126005761010080835404028352916020019161262b565b820191906000526020600020905b81548152906001019060200180831161260e57829003601f168201915b50505091835250506002919091015460ff166020909101529392505050565b80612654816145a3565b915050612536565b50919050565b61268660405180606001604052806000815260200160608152602001600081525090565b60005b6006548110156127f657826040516020016126a491906145e8565b60405160208183030381529060405280519060200120600682815481106126cd576126cd614558565b90600052602060002090600302016001016040516020016126ee9190614787565b6040516020818303038152906040528051906020012014156127e4576006818154811061271d5761271d614558565b9060005260206000209060030201604051806060016040529081600082015481526020016001820180546127509061456e565b80601f016020809104026020016040519081016040528092919081815260200182805461277c9061456e565b80156127c95780601f1061279e576101008083540402835291602001916127c9565b820191906000526020600020905b8154815290600101906020018083116127ac57829003601f168201915b50505050508152602001600282015481525050915050919050565b806127ee816145a3565b915050612689565b505060408051606081018252600080825282516020818101855282825283015291810191909152919050565b600061283060015460ff1690565b1561284d5760405162461bcd60e51b8152600401610510906145be565b612855613ab0565b61285d613b9f565b604080516000815260208101808352815190209161287d918591016145e8565b6040516020818303038152906040528051906020012014156128d85760405162461bcd60e51b8152602060048201526014602482015273557269206d75737420686176652076616c75652160601b6044820152606401610510565b6000806128e68686866136cb565b91509150816129375760405162461bcd60e51b815260206004820152601c60248201527f4e6f2061727420666f756e6420666f7220676976656e206461746121000000006044820152606401610510565b805b600087815260076020908152604080832089845290915290205461295f906001906147f9565b811015612a4c576000878152600760209081526040808320898452909152902061298a826001614540565b8154811061299a5761299a614558565b600091825260208083208a84526007825260408085208b86529092529220805460049092029092019190839081106129d4576129d4614558565b906000526020600020906004020160008201548160000155600182015481600101556002820181600201908054612a0a9061456e565b612a15929190613ce1565b506003820181600301908054612a2a9061456e565b612a35929190613ce1565b509050508080612a44906145a3565b915050612939565b50600086815260076020908152604080832088845290915290208054612a74906001906147f9565b81548110612a8457612a84614558565b6000918252602082206004909102018181556001810182905590612aab6002830182613d5c565b612ab9600383016000613d5c565b505060008681526007602090815260408083208884529091529020805480612ae357612ae3614810565b6000828152602081206004600019909301928302018181556001810182905590612b106002830182613d5c565b612b1e600383016000613d5c565b505090557e6f01b0024bbee35ceeb3367c552a7931a8851e29b71dd8e609ceb003cf33a6868686604051612b5493929190614826565b60405180910390a150600195945050505050565b612b8c60405180606001604052806000815260200160608152602001600081525090565b60005b6006548110156127f6578260068281548110612bad57612bad614558565b9060005260206000209060030201600001541415612bd8576006818154811061271d5761271d614558565b80612be2816145a3565b915050612b8f565b612c1160405180606001604052806000815260200160608152602001600060ff1681525090565b60005b60055481101561265c5782604051602001612c2f91906145e8565b6040516020818303038152906040528051906020012060058281548110612c5857612c58614558565b9060005260206000209060030201600101604051602001612c799190614787565b604051602081830303815290604052805190602001201415612ca8576005818154811061257f5761257f614558565b80612cb2816145a3565b915050612c14565b60606009805480602002602001604051908101604052809291908181526020018280548015612d0857602002820191906000526020600020905b815481526020019060010190808311612cf4575b5050505050905090565b6003546001600160a01b03163314612d3c5760405162461bcd60e51b8152600401610510906146cb565b6001600160a01b038116612da15760405162461bcd60e51b815260206004820152602660248201527f4f776e61626c653a206e6577206f776e657220697320746865207a65726f206160448201526564647265737360d01b6064820152608401610510565b612daa8161350f565b50565b6003546001600160a01b0316331480612e505750600480546040805163ca4b208b60e01b815290516001600160a01b039092169263ca4b208b928282019260209290829003018186803b158015612e0357600080fd5b505afa158015612e17573d6000803e3d6000fd5b505050506040513d601f19601f82011682018060405250810190612e3b9190614845565b6001600160a01b0316336001600160a01b0316145b80612ee55750600480546040805163406194c560e01b815290516001600160a01b039092169263406194c5928282019260209290829003018186803b158015612e9857600080fd5b505afa158015612eac573d6000803e3d6000fd5b505050506040513d601f19601f82011682018060405250810190612ed09190614845565b6001600160a01b0316336001600160a01b0316145b610f985760405162461bcd60e51b815260206004820152601f60248201527f4e6f74204f776e65722c20436869656620446576656c6f7065722c2044414f006044820152606401610510565b60048054604080516302b2897560e11b815290516001600160a01b039092169263056512ea928282019260209290829003018186803b158015612f7357600080fd5b505afa158015612f87573d6000803e3d6000fd5b505050506040513d601f19601f82011682018060405250810190612fab9190614862565b806130405750600480546040805163406194c560e01b815290516001600160a01b039092169263406194c5928282019260209290829003018186803b158015612ff357600080fd5b505afa158015613007573d6000803e3d6000fd5b505050506040513d601f19601f8201168201806040525081019061302b9190614845565b6001600160a01b0316336001600160a01b0316145b610f985760405162461bcd60e51b8152602060048201526024808201527f4e6f74204f6e20496d706c656d656e746174696f6e2073656e646572206e6f746044820152632044414f60e01b6064820152608401610510565b6000805b6006548110156130ea5782600682815481106130ba576130ba614558565b90600052602060002090600302016000015414156130d85792915050565b806130e2816145a3565b91505061309c565b50600092915050565b604080516064808252610ca082019092529060208201610c808036833750508151613125926009925060200190613d96565b5060008060005b60065481101561317a576006818154811061314957613149614558565b906000526020600020906003020160020154826131669190614540565b915080613172816145a3565b91505061312c565b5060005b60065481101561324d5760015b81156131985760006131a3565b6131a38360646147f9565b600683815481106131b6576131b6614558565b9060005260206000209060030201600201546131d29190614540565b811161323a57600682815481106131eb576131eb614558565b9060005260206000209060030201600001546009858061320a906145a3565b96508154811061321c5761321c614558565b60009182526020909120015580613232816145a3565b91505061318b565b5080613245816145a3565b91505061317e565b505050565b6003546001600160a01b03163314806132f55750600480546040805163406194c560e01b815290516001600160a01b039092169263406194c5928282019260209290829003018186803b1580156132a857600080fd5b505afa1580156132bc573d6000803e3d6000fd5b505050506040513d601f19601f820116820180604052508101906132e09190614845565b6001600160a01b0316336001600160a01b0316145b610f985760405162461bcd60e51b815260206004820152600e60248201526d4e6f74204f776e65722c2044414f60901b6044820152606401610510565b60015460ff166133545760405162461bcd60e51b81526004016105109061469d565b6001805460ff191690557f5db9ee0a495bf2e6ff9c91a7834c1ba4fdd244a5e8aa4e537bd38aeae4b073aa335b6040516001600160a01b03909116815260200160405180910390a1565b6003546001600160a01b031633148061342e5750600480546040516305eca4a760e41b815233928101929092526001600160a01b031690635eca4a709060240160206040518083038186803b1580156133f657600080fd5b505afa15801561340a573d6000803e3d6000fd5b505050506040513d601f19601f8201168201806040525081019061342e9190614862565b806134c35750600480546040805163406194c560e01b815290516001600160a01b039092169263406194c5928282019260209290829003018186803b15801561347657600080fd5b505afa15801561348a573d6000803e3d6000fd5b505050506040513d601f19601f820116820180604052508101906134ae9190614845565b6001600160a01b0316336001600160a01b0316145b610f985760405162461bcd60e51b815260206004820152601960248201527f4e6f74204f776e65722c20446576656c6f7065722c2044414f000000000000006044820152606401610510565b600380546001600160a01b038381166001600160a01b0319831681179093556040519116919082907f8be0079c531659141344cd1fd0a4f28419497f9722a3daafe3b4186f6b6457e090600090a35050565b6003546001600160a01b03163314806135f15750600480546040516306b2f65b60e41b815233928101929092526001600160a01b031690636b2f65b09060240160206040518083038186803b1580156135b957600080fd5b505afa1580156135cd573d6000803e3d6000fd5b505050506040513d601f19601f820116820180604052508101906135f19190614862565b806136865750600480546040805163406194c560e01b815290516001600160a01b039092169263406194c5928282019260209290829003018186803b15801561363957600080fd5b505afa15801561364d573d6000803e3d6000fd5b505050506040513d601f19601f820116820180604052508101906136719190614845565b6001600160a01b0316336001600160a01b0316145b610f985760405162461bcd60e51b81526020600482015260166024820152754e6f74204f776e65722c204172746973742c2044414f60501b6044820152606401610510565b600083815260076020908152604080832085845290915281205481901561392f576000858152600760209081526040808320878452825280832080548251818502810185019093528083529192909190849084015b8282101561388a578382906000526020600020906004020160405180608001604052908160008201548152602001600182015481526020016002820180546137679061456e565b80601f01602080910402602001604051908101604052809291908181526020018280546137939061456e565b80156137e05780601f106137b5576101008083540402835291602001916137e0565b820191906000526020600020905b8154815290600101906020018083116137c357829003601f168201915b505050505081526020016003820180546137f99061456e565b80601f01602080910402602001604051908101604052809291908181526020018280546138259061456e565b80156138725780601f1061384757610100808354040283529160200191613872565b820191906000526020600020905b81548152906001019060200180831161385557829003601f168201915b50505050508152505081526020019060010190613720565b50505050905060005b815181101561392c57846040516020016138ad91906145e8565b604051602081830303815290604052805190602001208282815181106138d5576138d5614558565b6020026020010151606001516040516020016138f191906145e8565b60405160208183030381529060405280519060200120141561391a576001935091506139369050565b80613924816145a3565b915050613893565b50505b5060009050805b935093915050565b60015460ff16156139615760405162461bcd60e51b8152600401610510906145be565b6001805460ff1916811790557f62e78cea01bee320cd4e420270b5ea74000d11b0c9f74754ebdbfc544b05a25833613381565b6040805160008082526020820180845282519020909290916139b8918591016145e8565b604051602081830303815290604052805190602001201415613a145760405162461bcd60e51b81526020600482015260156024820152744e616d65206d75737420686176652076616c75652160581b6044820152606401610510565b60005b60055481101561265c5782604051602001613a3291906145e8565b6040516020818303038152906040528051906020012060058281548110613a5b57613a5b614558565b9060005260206000209060030201600101604051602001613a7c9190614787565b604051602081830303815290604052805190602001201415613a9e5792915050565b80613aa8816145a3565b915050613a17565b6003546001600160a01b0316331480613b53575060048054604080516321de0b0960e11b815290516001600160a01b03909216926343bc1612928282019260209290829003018186803b158015613b0657600080fd5b505afa158015613b1a573d6000803e3d6000fd5b505050506040513d601f19601f82011682018060405250810190613b3e9190614845565b6001600160a01b0316336001600160a01b0316145b610f985760405162461bcd60e51b815260206004820152601760248201527f4e6f74204f776e65722c204368696566204172746973740000000000000000006044820152606401610510565b60048054604080516302b2897560e11b815290516001600160a01b039092169263056512ea928282019260209290829003018186803b158015613be157600080fd5b505afa158015613bf5573d6000803e3d6000fd5b505050506040513d601f19601f82011682018060405250810190613c199190614862565b610f985760405162461bcd60e51b81526020600482015260156024820152742737ba1027b71024b6b83632b6b2b73a30ba34b7b760591b6044820152606401610510565b828054613c699061456e565b90600052602060002090601f016020900481019282613c8b5760008555613cd1565b82601f10613ca457805160ff1916838001178555613cd1565b82800160010185558215613cd1579182015b82811115613cd1578251825591602001919060010190613cb6565b50613cdd929150613dd0565b5090565b828054613ced9061456e565b90600052602060002090601f016020900481019282613d0f5760008555613cd1565b82601f10613d205780548555613cd1565b82800160010185558215613cd157600052602060002091601f016020900482015b82811115613cd1578254825591600101919060010190613d41565b508054613d689061456e565b6000825580601f10613d78575050565b601f016020900490600052602060002090810190612daa9190613dd0565b828054828255906000526020600020908101928215613cd15791602002820182811115613cd1578251825591602001919060010190613cb6565b5b80821115613cdd5760008155600101613dd1565b600060208284031215613df757600080fd5b81356001600160e01b03198116811461069857600080fd5b600080600060608486031215613e2457600080fd5b505081359360208301359350604090920135919050565b60005b83811015613e56578181015183820152602001613e3e565b8381111561147a5750506000910152565b60008151808452613e7f816020860160208601613e3b565b601f01601f19169290920160200192915050565b80518252602081015160208301526000604082015160806040850152613ebc6080850182613e67565b905060608301518482036060860152613ed58282613e67565b95945050505050565b6020815260006106986020830184613e93565b60008060408385031215613f0457600080fd5b50508035926020909101359150565b6000602080830181845280855180835260408601915060408160051b870101925083870160005b82811015613f6857603f19888603018452613f56858351613e93565b94509285019290850190600101613f3a565b5092979650505050505050565b634e487b7160e01b600052604160045260246000fd5b6040516080810167ffffffffffffffff81118282101715613fae57613fae613f75565b60405290565b604051601f8201601f1916810167ffffffffffffffff81118282101715613fdd57613fdd613f75565b604052919050565b600082601f830112613ff657600080fd5b813567ffffffffffffffff81111561401057614010613f75565b614023601f8201601f1916602001613fb4565b81815284602083860101111561403857600080fd5b816020850160208301376000918101602001919091529392505050565b60008060006060848603121561406a57600080fd5b8335925060208401359150604084013567ffffffffffffffff81111561408f57600080fd5b61409b86828701613fe5565b9150509250925092565b8051825260006020820151606060208501526140c46060850182613e67565b604093840151949093019390935250919050565b60208152600061069860208301846140a5565b6020815260006106986020830184613e67565b6001600160a01b0381168114612daa57600080fd5b60006020828403121561412557600080fd5b8135610698816140fe565b60006020828403121561414257600080fd5b5035919050565b6000806040838503121561415c57600080fd5b82359150602083013567ffffffffffffffff81111561417a57600080fd5b61418685828601613fe5565b9150509250929050565b8015158114612daa57600080fd5b600080604083850312156141b157600080fd5b82356141bc81614190565b946020939093013593505050565b6000602080830181845280855180835260408601915060408160051b870101925083870160005b82811015613f6857603f1988860301845261420d8583516140a5565b945092850192908501906001016141f1565b6000602080838503121561423257600080fd5b823567ffffffffffffffff8082111561424a57600080fd5b818501915085601f83011261425e57600080fd5b81358181111561427057614270613f75565b8060051b61427f858201613fb4565b918252838101850191858101908984111561429957600080fd5b86860192505b83831015614344578235858111156142b657600080fd5b86016080818c03601f190112156142cd5760008081fd5b6142d5613f8b565b8882013581526040808301358a830152606080840135898111156142f95760008081fd5b6143078f8d83880101613fe5565b838501525060808401359150888211156143215760008081fd5b61432f8e8c84870101613fe5565b9083015250835250918601919086019061429f565b9998505050505050505050565b6000806040838503121561436457600080fd5b823567ffffffffffffffff81111561437b57600080fd5b61438785828601613fe5565b95602094909401359450505050565b6000602082840312156143a857600080fd5b813561069881614190565b8051825260006020820151606060208501526143d26060850182613e67565b60409384015160ff16949093019390935250919050565b6000602080830181845280855180835260408601915060408160051b870101925083870160005b82811015613f6857603f1988860301845261442c8583516143b3565b94509285019290850190600101614410565b6000806040838503121561445157600080fd5b823567ffffffffffffffff81111561446857600080fd5b61447485828601613fe5565b925050602083013560ff8116811461448b57600080fd5b809150509250929050565b60208152600061069860208301846143b3565b6000602082840312156144bb57600080fd5b813567ffffffffffffffff8111156144d257600080fd5b6144de84828501613fe5565b949350505050565b6020808252825182820181905260009190848201906040850190845b8181101561451e57835183529284019291840191600101614502565b50909695505050505050565b634e487b7160e01b600052601160045260246000fd5b600082198211156145535761455361452a565b500190565b634e487b7160e01b600052603260045260246000fd5b600181811c9082168061458257607f821691505b6020821081141561265c57634e487b7160e01b600052602260045260246000fd5b60006000198214156145b7576145b761452a565b5060010190565b60208082526010908201526f14185d5cd8589b194e881c185d5cd95960821b604082015260600190565b600082516145fa818460208701613e3b565b9190910192915050565b600081546146118161456e565b80855260206001838116801561462e576001811461464257614670565b60ff19851688840152604088019550614670565b866000528260002060005b858110156146685781548a820186015290830190840161464d565b890184019650505b505050505092915050565b60408152600061468e6040830185614604565b90508260208301529392505050565b60208082526014908201527314185d5cd8589b194e881b9bdd081c185d5cd95960621b604082015260600190565b6020808252818101527f4f776e61626c653a2063616c6c6572206973206e6f7420746865206f776e6572604082015260600190565b84815283602082015260806040820152600061471f6080830185613e67565b82810360608401526147318185613e67565b979650505050505050565b60408152600061468e6040830185613e67565b6020815260006106986020830184614604565b6040815260006147756040830185613e67565b905060ff831660208301529392505050565b60008083546147958161456e565b600182811680156147ad57600181146147be576147ed565b60ff198416875282870194506147ed565b8760005260208060002060005b858110156147e45781548a8201529084019082016147cb565b50505082870194505b50929695505050505050565b60008282101561480b5761480b61452a565b500390565b634e487b7160e01b600052603160045260246000fd5b838152826020820152606060408201526000613ed56060830184613e67565b60006020828403121561485757600080fd5b8151610698816140fe565b60006020828403121561487457600080fd5b81516106988161419056fea264697066735822122077c319786eba88845f48d3bb62e975e2343feef47ffeb46797f5090b7318d49864736f6c63430008090033036b6384b5eca791c62761152d0c79bb0604c104a5fb6f4eb0703f3154bb3db1036b6384b5eca791c62761152d0c79bb0604c104a5fb6f4eb0703f3154bb3db0f652222313e28459528d920b65115c16c04f3efc82aaedc97be59f3f377c0d40f652222313e28459528d920b65115c16c04f3efc82aaedc97be59f3f377c0d3f"
}