{
  "address": "0x2E2Ed0Cfd3AD2f1d34481277b3204d807Ca2F8c2",
  "abi": [
    {
      "inputs": [
        {
          "internalType": "contract IQueenPalace",
          "name": "_queenPalace",
          "type": "address"
        }
      ],
      "stateMutability": "nonpayable",
      "type": "constructor"
    },
    {
      "anonymous": false,
      "inputs": [
        {
          "indexed": true,
          "internalType": "address",
          "name": "sender",
          "type": "address"
        },
        {
          "indexed": false,
          "internalType": "uint256",
          "name": "queeneAuctionId",
          "type": "uint256"
        },
        {
          "indexed": false,
          "internalType": "uint256",
          "name": "value",
          "type": "uint256"
        }
      ],
      "name": "DAOTreasureDeposit",
      "type": "event"
    },
    {
      "anonymous": false,
      "inputs": [
        {
          "indexed": true,
          "internalType": "address",
          "name": "payed",
          "type": "address"
        },
        {
          "indexed": false,
          "internalType": "uint256",
          "name": "withdrawId",
          "type": "uint256"
        },
        {
          "indexed": false,
          "internalType": "uint256",
          "name": "value",
          "type": "uint256"
        }
      ],
      "name": "DAOTreasureWithdraw",
      "type": "event"
    },
    {
      "anonymous": false,
      "inputs": [
        {
          "indexed": true,
          "internalType": "address",
          "name": "previousOwner",
          "type": "address"
        },
        {
          "indexed": true,
          "internalType": "address",
          "name": "newOwner",
          "type": "address"
        }
      ],
      "name": "OwnershipTransferred",
      "type": "event"
    },
    {
      "anonymous": false,
      "inputs": [
        {
          "indexed": false,
          "internalType": "address",
          "name": "account",
          "type": "address"
        }
      ],
      "name": "Paused",
      "type": "event"
    },
    {
      "anonymous": false,
      "inputs": [
        {
          "indexed": false,
          "internalType": "address",
          "name": "account",
          "type": "address"
        }
      ],
      "name": "Unpaused",
      "type": "event"
    },
    {
      "stateMutability": "payable",
      "type": "fallback"
    },
    {
      "inputs": [],
      "name": "daoTreasure",
      "outputs": [
        {
          "internalType": "uint256",
          "name": "",
          "type": "uint256"
        }
      ],
      "stateMutability": "view",
      "type": "function"
    },
    {
      "inputs": [
        {
          "internalType": "uint256",
          "name": "_queeneAuctionId",
          "type": "uint256"
        }
      ],
      "name": "depositToDAOTreasure",
      "outputs": [],
      "stateMutability": "payable",
      "type": "function"
    },
    {
      "inputs": [
        {
          "internalType": "address",
          "name": "_address",
          "type": "address"
        }
      ],
      "name": "isOwner",
      "outputs": [
        {
          "internalType": "bool",
          "name": "",
          "type": "bool"
        }
      ],
      "stateMutability": "view",
      "type": "function"
    },
    {
      "inputs": [],
      "name": "owner",
      "outputs": [
        {
          "internalType": "address",
          "name": "",
          "type": "address"
        }
      ],
      "stateMutability": "view",
      "type": "function"
    },
    {
      "inputs": [],
      "name": "pause",
      "outputs": [],
      "stateMutability": "nonpayable",
      "type": "function"
    },
    {
      "inputs": [],
      "name": "paused",
      "outputs": [
        {
          "internalType": "bool",
          "name": "",
          "type": "bool"
        }
      ],
      "stateMutability": "view",
      "type": "function"
    },
    {
      "inputs": [],
      "name": "renounceOwnership",
      "outputs": [],
      "stateMutability": "nonpayable",
      "type": "function"
    },
    {
      "inputs": [],
      "name": "retrieveAuctionFallbackFunds",
      "outputs": [],
      "stateMutability": "nonpayable",
      "type": "function"
    },
    {
      "inputs": [
        {
          "internalType": "contract IQueenPalace",
          "name": "_queenPalace",
          "type": "address"
        }
      ],
      "name": "setQueenPalace",
      "outputs": [],
      "stateMutability": "nonpayable",
      "type": "function"
    },
    {
      "inputs": [
        {
          "internalType": "bytes4",
          "name": "interfaceId",
          "type": "bytes4"
        }
      ],
      "name": "supportsInterface",
      "outputs": [
        {
          "internalType": "bool",
          "name": "",
          "type": "bool"
        }
      ],
      "stateMutability": "view",
      "type": "function"
    },
    {
      "inputs": [
        {
          "internalType": "address",
          "name": "newOwner",
          "type": "address"
        }
      ],
      "name": "transferOwnership",
      "outputs": [],
      "stateMutability": "nonpayable",
      "type": "function"
    },
    {
      "inputs": [],
      "name": "unpause",
      "outputs": [],
      "stateMutability": "nonpayable",
      "type": "function"
    },
    {
      "inputs": [
        {
          "internalType": "uint256",
          "name": "_amount",
          "type": "uint256"
        },
        {
          "internalType": "address payable",
          "name": "_funded",
          "type": "address"
        }
      ],
      "name": "withdrawFromTreasure",
      "outputs": [],
      "stateMutability": "nonpayable",
      "type": "function"
    },
    {
      "stateMutability": "payable",
      "type": "receive"
    }
  ],
  "numDeployments": 6,
  "bytecode": "0x608060405234801561001057600080fd5b506040516112df3803806112df83398101604081905261002f91610154565b6001805460ff191681556002556100453361007f565b61005563c515960360e01b6100d1565b6001600555600480546001600160a01b0319166001600160a01b0392909216919091179055610184565b600380546001600160a01b038381166001600160a01b0319831681179093556040519116919082907f8be0079c531659141344cd1fd0a4f28419497f9722a3daafe3b4186f6b6457e090600090a35050565b6001600160e01b0319808216141561012f5760405162461bcd60e51b815260206004820152601c60248201527f4552433136353a20696e76616c696420696e7465726661636520696400000000604482015260640160405180910390fd5b6001600160e01b0319166000908152602081905260409020805460ff19166001179055565b60006020828403121561016657600080fd5b81516001600160a01b038116811461017d57600080fd5b9392505050565b61114c806101936000396000f3fe6080604052600436106100c65760003560e01c80635c975abb1161007f5780638456cb59116100595780638456cb59146101f35780638da5cb5b14610208578063bc7321ab14610230578063f2fde38b14610243576100e1565b80635c975abb146101b1578063715018a6146101c95780637966b7a8146101de576100e1565b806301ffc9a7146100e95780631adca4b41461011e5780632f54bf6e1461013e57806337e4a5f81461015e578063395062ce1461017c5780633f4ba83a1461019c576100e1565b366100e1576100d3610263565b6100df33600034610359565b005b6100d3610263565b3480156100f557600080fd5b50610109610104366004610ecc565b6103fa565b60405190151581526020015b60405180910390f35b34801561012a57600080fd5b506100df610139366004610f12565b61043a565b34801561014a57600080fd5b50610109610159366004610f42565b61049e565b34801561016a57600080fd5b50600654604051908152602001610115565b34801561018857600080fd5b506100df610197366004610f42565b6104cc565b3480156101a857600080fd5b506100df610548565b3480156101bd57600080fd5b5060015460ff16610109565b3480156101d557600080fd5b506100df61059c565b3480156101ea57600080fd5b506100df6105d0565b3480156101ff57600080fd5b506100df61079f565b34801561021457600080fd5b506003546040516001600160a01b039091168152602001610115565b6100df61023e366004610f5f565b6107f4565b34801561024f57600080fd5b506100df61025e366004610f42565b610825565b6003546001600160a01b0316331480610306575060048054604080516307e5342960e41b815290516001600160a01b0390921692637e534290928282019260209290829003018186803b1580156102b957600080fd5b505afa1580156102cd573d6000803e3d6000fd5b505050506040513d601f19601f820116820180604052508101906102f19190610f78565b6001600160a01b0316336001600160a01b0316145b6103575760405162461bcd60e51b815260206004820152601860248201527f4e6f74204f776e65722c2041756374696f6e20486f757365000000000000000060448201526064015b60405180910390fd5b565b6000811161039a5760405162461bcd60e51b815260206004820152600e60248201526d1a5b9d985b1a5908185b5bdd5b9d60921b604482015260640161034e565b80600660008282546103ac9190610fab565b909155505060408051838152602081018390526001600160a01b038516917f01577fc82376a680533f8b6ccf8346bab1114a23ca3dd7b959a542304ea642c4910160405180910390a2505050565b60006301ffc9a760e01b6001600160e01b03198316148061043457506001600160e01b0319821660009081526020819052604090205460ff165b92915050565b60028054141561045c5760405162461bcd60e51b815260040161034e90610fc3565b6002805560015460ff16156104835760405162461bcd60e51b815260040161034e90610ffa565b61048b6108c0565b6104958183610984565b50506001600255565b6000816001600160a01b03166104bc6003546001600160a01b031690565b6001600160a01b03161492915050565b6002805414156104ee5760405162461bcd60e51b815260040161034e90610fc3565b6002805560015460ff166105145760405162461bcd60e51b815260040161034e90611024565b61051c610a53565b610524610b33565b600480546001600160a01b0319166001600160a01b0383161790555b506001600255565b6003546001600160a01b031633146105725760405162461bcd60e51b815260040161034e90611052565b60015460ff166105945760405162461bcd60e51b815260040161034e90611024565b610357610c9a565b6003546001600160a01b031633146105c65760405162461bcd60e51b815260040161034e90611052565b6103576000610d06565b6002805414156105f25760405162461bcd60e51b815260040161034e90610fc3565b6002805560015460ff16156106195760405162461bcd60e51b815260040161034e90610ffa565b6003546001600160a01b031633146106435760405162461bcd60e51b815260040161034e90611052565b6000600460009054906101000a90046001600160a01b03166001600160a01b0316637e5342906040518163ffffffff1660e01b815260040160206040518083038186803b15801561069357600080fd5b505afa1580156106a7573d6000803e3d6000fd5b505050506040513d601f19601f820116820180604052508101906106cb9190610f78565b60408051600481526024810182526020810180516001600160e01b03166317b2a8c560e01b17905290516001600160a01b03929092169161070c9190611087565b6000604051808303816000865af19150503d8060008114610749576040519150601f19603f3d011682016040523d82523d6000602084013e61074e565b606091505b50509050806105405760405162461bcd60e51b815260206004820152601f60248201527f4572726f722072657472696576696e672066616c6c6261636b2066756e647300604482015260640161034e565b6003546001600160a01b031633146107c95760405162461bcd60e51b815260040161034e90611052565b60015460ff16156107ec5760405162461bcd60e51b815260040161034e90610ffa565b610357610d58565b6002805414156108165760405162461bcd60e51b815260040161034e90610fc3565b60028055610540338234610359565b6003546001600160a01b0316331461084f5760405162461bcd60e51b815260040161034e90611052565b6001600160a01b0381166108b45760405162461bcd60e51b815260206004820152602660248201527f4f776e61626c653a206e6577206f776e657220697320746865207a65726f206160448201526564647265737360d01b606482015260840161034e565b6108bd81610d06565b50565b600480546040805163406194c560e01b815290516001600160a01b039092169263406194c5928282019260209290829003018186803b15801561090257600080fd5b505afa158015610916573d6000803e3d6000fd5b505050506040513d601f19601f8201168201806040525081019061093a9190610f78565b6001600160a01b0316336001600160a01b0316146103575760405162461bcd60e51b81526020600482015260076024820152664e6f742044414f60c81b604482015260640161034e565b6006548111156109d65760405162461bcd60e51b815260206004820152601f60248201527f4e6f7420656e6f7567682062616c616e6365206f6e2074726561737572652100604482015260640161034e565b6109e08282610dae565b80600660008282546109f291906110c2565b9091555050600580546001600160a01b038416917ffa0bf26cd71c034a7a50d653a0d786707baa27046bafad7f3c0b64667b91670d91906000610a34836110d9565b9091555060408051918252602082018590520160405180910390a25050565b6003546001600160a01b0316331480610af65750600480546040805163406194c560e01b815290516001600160a01b039092169263406194c5928282019260209290829003018186803b158015610aa957600080fd5b505afa158015610abd573d6000803e3d6000fd5b505050506040513d601f19601f82011682018060405250810190610ae19190610f78565b6001600160a01b0316336001600160a01b0316145b6103575760405162461bcd60e51b815260206004820152600e60248201526d4e6f74204f776e65722c2044414f60901b604482015260640161034e565b60048054604080516302b2897560e11b815290516001600160a01b039092169263056512ea928282019260209290829003018186803b158015610b7557600080fd5b505afa158015610b89573d6000803e3d6000fd5b505050506040513d601f19601f82011682018060405250810190610bad91906110f4565b80610c425750600480546040805163406194c560e01b815290516001600160a01b039092169263406194c5928282019260209290829003018186803b158015610bf557600080fd5b505afa158015610c09573d6000803e3d6000fd5b505050506040513d601f19601f82011682018060405250810190610c2d9190610f78565b6001600160a01b0316336001600160a01b0316145b6103575760405162461bcd60e51b8152602060048201526024808201527f4e6f74204f6e20496d706c656d656e746174696f6e2073656e646572206e6f746044820152632044414f60e01b606482015260840161034e565b60015460ff16610cbc5760405162461bcd60e51b815260040161034e90611024565b6001805460ff191690557f5db9ee0a495bf2e6ff9c91a7834c1ba4fdd244a5e8aa4e537bd38aeae4b073aa335b6040516001600160a01b03909116815260200160405180910390a1565b600380546001600160a01b038381166001600160a01b0319831681179093556040519116919082907f8be0079c531659141344cd1fd0a4f28419497f9722a3daafe3b4186f6b6457e090600090a35050565b60015460ff1615610d7b5760405162461bcd60e51b815260040161034e90610ffa565b6001805460ff1916811790557f62e78cea01bee320cd4e420270b5ea74000d11b0c9f74754ebdbfc544b05a25833610ce9565b80471015610dfe5760405162461bcd60e51b815260206004820152601d60248201527f416464726573733a20696e73756666696369656e742062616c616e6365000000604482015260640161034e565b6000826001600160a01b03168260405160006040518083038185875af1925050503d8060008114610e4b576040519150601f19603f3d011682016040523d82523d6000602084013e610e50565b606091505b5050905080610ec75760405162461bcd60e51b815260206004820152603a60248201527f416464726573733a20756e61626c6520746f2073656e642076616c75652c207260448201527f6563697069656e74206d61792068617665207265766572746564000000000000606482015260840161034e565b505050565b600060208284031215610ede57600080fd5b81356001600160e01b031981168114610ef657600080fd5b9392505050565b6001600160a01b03811681146108bd57600080fd5b60008060408385031215610f2557600080fd5b823591506020830135610f3781610efd565b809150509250929050565b600060208284031215610f5457600080fd5b8135610ef681610efd565b600060208284031215610f7157600080fd5b5035919050565b600060208284031215610f8a57600080fd5b8151610ef681610efd565b634e487b7160e01b600052601160045260246000fd5b60008219821115610fbe57610fbe610f95565b500190565b6020808252601f908201527f5265656e7472616e637947756172643a207265656e7472616e742063616c6c00604082015260600190565b60208082526010908201526f14185d5cd8589b194e881c185d5cd95960821b604082015260600190565b60208082526014908201527314185d5cd8589b194e881b9bdd081c185d5cd95960621b604082015260600190565b6020808252818101527f4f776e61626c653a2063616c6c6572206973206e6f7420746865206f776e6572604082015260600190565b6000825160005b818110156110a8576020818601810151858301520161108e565b818111156110b7576000828501525b509190910192915050565b6000828210156110d4576110d4610f95565b500390565b60006000198214156110ed576110ed610f95565b5060010190565b60006020828403121561110657600080fd5b81518015158114610ef657600080fdfea2646970667358221220766bacfde4572458c8a2f754f3cdadfc97973a65af11ae16043cf8d7eecb38dd64736f6c63430008090033"
}